:10000000A6C00000D8C00000D6C00000D4C00000C8
:10001000D2C00000D0C00000CEC00000CCC00000A4
:10002000CAC00000C8C00000C6C00000C4C00000B4
:10003000C2C00000C0C000000C94C40EBCC00000D0
:10004000BAC000000C942E0E0C94290E0C94330EA2
:10005000B2C00000B0C00000AEC00000ACC00000E4
:10006000AAC000000C949C0EA6C00000A4C0000012
:10007000A2C00000A0C0000007634236B79BD8A70B
:100080001A39685618AEBAAB558C1D3CB7CC5763BD
:10009000BD6DEDFD753EF6177231BF000000803F6B
:1000A00008000000BE922449123EABAAAA2ABECD87
:1000B000CCCC4C3E00000080BEABAAAAAA3E0000F9
:1000C0000000BF000000803F0000000000084178F1
:1000D000D3BB4387D1133D190E3CC3BD4282AD2B28
:1000E0003E68EC8276BED98FE1A93E4C80EFFFBE20
:1000F00001C4FF7F3F0000000000436F756C642067
:100100006E6F742066696E6420612076616C69642C
:1001100020424D503238302073656E736F722C2040
:10012000636865636B20776972696E67206F722000
:10013000747279206120646966666572656E7420E8
:10014000616464726573732100005E0FBE12112436
:100150001FBECFEFCDBFDFE3DEBF809140008093B5
:100160004000811105C098ED21E094BF209341002B
:100170008CBB29E3A6E0B8E301C01D92AA33B20705
:10018000E1F718E3A0E0B8E3E6E6F4E302C0059087
:100190000D92A630B107D9F710E0C6EAD0E004C04E
:1001A0002197FE010E948118C53AD107C9F70E9424
:1001B00052100C94CA1924CFE091C538F091C6387A
:1001C000309731F08091C038882311F090E0099485
:1001D0000895AF92BF92CF92DF92EF92FF920F936A
:1001E0001F93CF93DF936C017B018B01040F151FCD
:1001F000EB015E01AE18BF08C017D10759F0699135
:10020000D601ED91FC910190F081E02DC601099598
:10021000892B79F7C501DF91CF911F910F91FF9045
:10022000EF90DF90CF90BF90AF900895FC0153897D
:100230004489252F30E0842F90E0821B930B5417C4
:1002400010F0CF96089501970895FC019189828955
:10025000981761F0A289AE0FBF2FB11D55968C91F2
:1002600092899F5F9F73928B90E008958FEF9FEF2D
:100270000895FC0191898289981731F08289E80FED
:10028000F11D858990E008958FEF9FEF0895FC019F
:1002900091892289892F90E0805C9F4F821B910970
:1002A0008F7399270895CF93DF93EC01E881F9814B
:1002B0000680F781E02D0995EC85FD858681168203
:1002C0008581158280E484838A89898B188ADF91ED
:1002D000CF910895FC010FB607FE04C08091110173
:1002E0008823A9F0A485B58514968C91149785FF71
:1002F0000EC093898489981739F015968C911597BB
:100300008F7D15968C930895E8940C943E0E089575
:100310000F931F93CF93DF93EC018889982F9160FF
:10032000988B2B899C8929130AC0EC85FD859481C3
:1003300095FF05C081FD0DC080E4848312C0062FA7
:100340001B891F5F1F738C89811315C0CE01C2DF0B
:10035000FACF85818F77806490E49483EC85FD8566
:100360008583EC85FD85628381E090E0DF91CF910C
:100370001F910F910895EB89EC0FFD2FF11DEB5AA2
:10038000FF4F00831B8BEC85FD85888981FF09C0A9
:1003900085818F77806690E49483EC85FD858583E5
:1003A000E3CF85818062FBCFCF93DF93EC01888917
:1003B000882359F0EC85FD85858185FD03C0848106
:1003C00086FD03C0CE0186DFF5CFDF91CF91089582
:1003D00081E0089500C000008230910540F0880F50
:1003E000991F0297019700C000C000C0D9F7089577
:1003F0009FB7F894E0919A0AF0919B0A8091960A2F
:1004000020910638309107384091083850910938CA
:100410009FBF80FF08C0CF018827892B21F42F5F61
:100420003F4F4F4F5F4F0F01169407941694079458
:1004300016940794F0011694079416940794E01903
:10044000F109169407940694102C1694169401182A
:1004500016941694010C1124E00DF11DA8EEB3E0E2
:100460000E9434176E0F7F1F811D911D0895CF923A
:10047000DF92EF92FF92CF93DF936B017C01B8DFA5
:10048000EB01B6DF6C1B7D0B683E7340A0F0C1141E
:10049000D104E104F10439F4DF91CF91FF90EF90A2
:1004A000DF90CF90089581E0C81AD108E108F108E3
:1004B000C851DC4FE6CFC114D104E104F10409F7BF
:1004C000EBCFDC011C96ED91FC91848188608483E4
:1004D00008959C01285C3F4FDC015296EC915297A5
:1004E00051968C91E81730F4E20FF32FF11D8081C3
:1004F00090E008958FEF9FEF0895FC01DC01D896FE
:1005000092898189981740F4A90FB11D2C919F5FA2
:10051000928B822F90E008958FEF9FEF0895FC015A
:1005200081899289891B990B0895CF92DF92EF926E
:10053000FF920F931F93CF936C014132510510F03E
:1005400040E250E0C42F7B0110E000E00C1780F483
:10055000D7016D917D01D601ED91FC910190F08163
:10056000E02DC601099598012F5F3F4F892B49F473
:10057000C801CF911F910F91FF90EF90DF90CF9026
:1005800008958901E3CFFC01A089A03258F4A80F97
:10059000B92FB11D58966C9380898F5F808B81E055
:1005A00090E0089590E080E0089590E080E0089564
:1005B0001F93CF93DF93DC0116961C921697ED9153
:1005C000FC9111978581837009F441C013968C9139
:1005D00013978160878330E020E090E080E012E0B4
:1005E0005581752F73702F5F3F4F2132CEE43C074A
:1005F00028F4D52FDC7041F09CE0958315968C9300
:10060000DF91CF911F9108959923A1F07230B1F736
:10061000948357FF18C08032A0F450859D01280FA5
:10062000311DE9015CA78F5F861738F4148330E031
:1006300020E0D6CF7230A1F6ECCF4423F9F230E0BF
:1006400020E097E0CDCF56FFCBCF93E0C9CF80E03D
:10065000D7CFCF93DF93DC01ED91FC91119785818A
:10066000837009F441C030E020E090E04581842FA0
:1006700083702F5F3F4F21325EE4350750F08230A8
:1006800079F1813079F184E093E09483DF91CF9127
:100690000895542F5C7021F08CE0858382E1F4CFC3
:1006A000813041F413968C9113978E7F878330E0CD
:1006B00020E0DCCF8230D1F646FFD8CF44FF04C023
:1006C000992311F383E0E0CF14968C911497981737
:1006D00068F4ED01C90FD11D8C8580879F5FE7CF3E
:1006E00085E0D2CF81E1D0CF80E1D0CF80E066231A
:1006F00069F2CACFAF92BF92CF92DF92EF92FF9290
:100700000F931F93CF93DF93EC0188819981892BFD
:10071000A9F000006093C4088091C30887FFFCCF54
:10072000B090C4088B2DDF91CF911F910F91FF9056
:10073000EF90DF90CF90BF90AF9008958885998516
:1007400011E0892B09F010E8AA24A394862F8123B5
:1007500009F0A12C062F2C813D814E815F8160E242
:1007600071EA87E090E00E941217F22EB02EE12C81
:10077000C22ED12CFF2011F0C6012CDE8A858D7F80
:1007800009F041C08D858F3F89F0902F912381E042
:1007900009F480E08A1551F0EF85F8898F89992353
:1007A00061F19081892B8083AA24A394E989FA8935
:1007B0008081998D892B8083FF2011F0C6010ADE8C
:1007C0008E858F3F39F0EB89FC898081988D892354
:1007D00009F0E12AE989FA899081898D8095892338
:1007E00080838E858F3F09F0BE2C88859985892B63
:1007F000B1F5110F1111BECF95CF9081809589234E
:100800008083A12CD3CFE989FA898081998D892BA6
:100810008083FF2011F0C601DDDD8D858F3F49F01B
:10082000EF85F8898F89902F9123A9F09081892BEA
:100830008083E989FA899081898D809589238083D5
:100840008E858F3F71F2EB89FC898081988D892399
:1008500041F2E12AC6CF908180958923E9CF169590
:10086000C9CF089508958F929F92AF92BF92CF9271
:10087000DF92EF92FF920F931F93CF93DF93FC01D0
:100880008681882319F081FF0EC07894DF91CF9183
:100890001F910F91FF90EF90DF90CF90BF90AF909E
:1008A0009F908F90089580FFF1CF80849184A284DF
:1008B000B384C12CD12C760110E09401A501B601BE
:1008C000C701A0E00E94751899F1217030E040E066
:1008D00050E060E070E080E090E00E947518D9F090
:1008E000D0E0C0E0183370F4C12FC695C695C69508
:1008F00080E2C89FE0011124C05FDB4F812F877029
:10090000C80FD11DCF01810F911DDC0150968C9134
:100910009881892B88839401A501B601C70101E064
:100920000E94481849015A016B017C011F5FC5CF25
:1009300084849584A684B784C12CD12C760110E2DE
:100940009401A501B601C701A0E00E94751809F441
:100950009DCF217030E040E050E060E070E080E04A
:1009600090E00E947518D9F0D0E0C0E0183370F420
:10097000C12FC695C695C695B0E2CB9FE001112464
:10098000C05FDB4F812F8770C80FD11DCF01810F52
:10099000911DDC0150968C919881892B888394015C
:1009A000A501B601C70101E00E94481849015A019A
:1009B0006B017C011F5FC4CF8F929F92AF92BF9259
:1009C000CF92DF92EF92FF920F931F93CF93DF931B
:1009D000FC01C62F172F8681882319F081FF12C0D2
:1009E000F894C093C0081093C108DF91CF911F9174
:1009F0000F91FF90EF90DF90CF90BF90AF909F90BE
:100A00008F90089580FFEDCF80849184A284B38479
:100A1000C12CD12C7601D0E09401A501B601C7010B
:100A2000A0E00E947518B1F1217030E040E050E084
:100A300060E070E080E090E00E947518F1F090E0D6
:100A400080E0D83370F48D2F86958695869520E2C8
:100A5000829FC0011124805F9B4F2D2F2770820F32
:100A6000911DDC014C919F012D0F311DD901509634
:100A70004C93DC012C91287F2C939401A501B601A5
:100A8000C70101E00E94481849015A016B017C012D
:100A9000DF5FC2CF84849584A684B784C12CD12C17
:100AA0007601D0E29401A501B601C701A0E00E9441
:100AB000751809F496CF217030E040E050E060E016
:100AC00070E080E090E00E947518F1F090E080E026
:100AD000D83370F48D2F869586958695B0E28B9FDE
:100AE000C0011124805F9B4F2D2F2770820F911D15
:100AF000DC014C919F012D0F311DD90150964C9373
:100B0000DC012C91287F2C939401A501B601C7012B
:100B100001E00E94481849015A016B017C01DF5F26
:100B2000C1CFDC01ED91FC910088F189E02D23E03B
:100B300030E00994CF93DF93EC01A981BA811E962E
:100B40008C911E97807611F583E0809326041E9683
:100B50008C911E9780621E968C931E971C96ED9129
:100B6000FC911D9781E0838385831E969C911E973F
:100B700095FF0CC096819B3549F0238113829BE53C
:100B8000968390819D7F90832383858381E08B83EF
:100B90008881880F1F968C931F9750961C9289818D
:100BA0009A8161E00C9655DD91E0811190E0892FEA
:100BB000DF91CF910895CF93DF938C30D8F590E0FB
:100BC000DC01A850BC442C912F3FA1F1FC01EC5F4B
:100BD000FB44E08130E2E39FF0011124FC5F6111EE
:100BE0002CC026833081232399F4EC01C854DC44C3
:100BF0002881309721F12F3F11F17096E20FF11DFE
:100C00003FB7F894208161111DC0277F20833FBF2B
:100C100084559C44FC018081882361F0803151F42B
:100C20008C91853008F0880F9091010A8095892376
:100C30008093010ADF91CF9108952583D3CFF0E00F
:100C4000E0E0DECF2860E2CFCF92DF92EF92FF921A
:100C50000F931F93CF93DF93EC018B016A0179010E
:100C600088819981009729F0EA81FB8160817181F7
:100C7000A3DE60E08B859FDFF8016081CE013ADD65
:100C80008601EC0CFD1C6FEFCE0134DDF801819381
:100C90008F01EE15FF05B9F761E08B858CDF888148
:100CA0009981009709F0DFDD81E0DF91CF911F91FD
:100CB0000F91FF90EF90DF90CF9008958C30F0F47B
:100CC00090E0FC01E850FC4420812F3FB9F0FC018A
:100CD000EC5FFB44E081E295EE0FF0E0F46060FF32
:100CE0000EC0218388549C44DC018C918061E80F04
:100CF000F11D808161FF0CC088608083089522838C
:100D0000623011F42583EECF6111ECCF2683EACF58
:100D1000877FF3CF8F929F92AF92BF92EF92FF9215
:100D20000F931F93CF93DF938C014A015B01E9017D
:100D3000DC0150968C91509780FF07C0ED91FC919B
:100D40000288F389E02DC8010995C11101C0C3E0F3
:100D5000EC2EE894E2F8FD2ECD2FD095D07CB1EDAD
:100D60008B16B2E19B06B3E1AB06B10428F0D2606A
:100D7000B694A7949794879460E074EB84EC94E025
:100D8000A50194010E9412172034310510F420E4CB
:100D900030E0F2FCD8608C2F8B72D7FD8068CD2FAD
:100DA000C87C83FF07C0C83C29F4F8019089926091
:100DB000908BC8ED80FDC160FFB6F894D8011C96F9
:100DC000ED91FC911682E7822087318785FF4DC027
:100DD000CF7791E094879FEF95878F7D8583D6832A
:100DE000F801478586859091E2052CEF811123EF6C
:100DF0009223242F30E050E0811152E0B90101C06C
:100E0000660F5A95EAF7962B9093E205433009F165
:100E1000820F932F911D880F991F880F991F8C01A6
:100E20000C531C44C6FF23C0C3FD21C061E0D801A0
:100E30008C9144DFC7FF07C0C4FD05C062E0D80144
:100E400011968C913BDFC0FF04C061E0F801838103
:100E500035DFFFBEDF91CF911F910F91FF90EF9093
:100E6000BF90AF909F908F9008951486B6CF2C2F8F
:100E7000207501F38C539C4462E0FC018081D9CF42
:100E8000FC0101900020E9F73197AF01481B590B95
:100E9000BC018AE198E39DC98F929F92AF92BF9265
:100EA0000F931F93CF93DF93CDB7DEB7A197CDBF3D
:100EB000DEBF19A2423008F44AE08E010F5D1F4FD9
:100EC000842E912CB12CA12CA50194010E94121703
:100ED000E62FB901CA01EA30D4F4E05DD801EE93FF
:100EE0008D01232B242B252B79F790E080E01097A0
:100EF00011F0CD01C5DFA196CDBFDEBFDF91CF914F
:100F00001F910F91BF90AF909F908F900895E95CD3
:100F1000E5CF4F925F926F927F928F929F92AF92A6
:100F2000BF92CF92DF92EF92FF926B017C01AC01F6
:100F30009B010E94E6158823B1F08CE294EBA0DFC0
:100F40007C018AE394EB9CDF8E0D9F1DFF90EF9058
:100F5000DF90CF90BF90AF909F908F907F906F90D9
:100F60005F904F90089546015701E894B7F82FEF2E
:100F70003FEF4FE75FE7C501B4010E94E61581111D
:100F80000DC02FEF3FEF4FE75FE7C501B4010E94AF
:100F9000971318161CF480E394EBD1CF2FEF3FEF9B
:100FA0004FE75FE4C701B6010E94331518161CF421
:100FB00084E394EBC4CF2FEF3FEF4FE75FECC70123
:100FC000B6010E94971387FDF3CF20E030E0A9011E
:100FD000C701B6010E949713B12CA12C87FF09C04D
:100FE0006DE28AE198E394D95C01F7FAF094F7F89E
:100FF000F0942AE037ED43EA5BE3C701B6010E94B3
:1010000033132B013C010E9403146B017C010E94ED
:1010100033149B01AC01C301B2010E9432132B01B6
:101020003C014AE0C701B60137DF7C01EA0CFB1C3A
:1010300088E394EB25DFE80EF91E20E030E040E283
:1010400051E4C301B2010E9437152B013C010E94FB
:1010500003144B01B12CA12C4AE0C501B4011CDFE3
:10106000E80EF91EC501B4010E9433149B01AC01C6
:10107000C301B2010E94321320E030E040E251E4AB
:101080000E9437150E94031490E080E04AE004DFDC
:10109000E80EF91E56CF2F923F924F925F926F92B9
:1010A0007F928F929F92AF92BF92CF92DF92EF92F8
:1010B000FF920F931F93CF93DF9300D01F92CDB772
:1010C000DEB78C014B016A012B832DB63EB6DC01E5
:1010D0001196ED91FC9112978C91880F8787108A59
:1010E00014966D907C9015976416750680F1119694
:1010F0008D919C91DC01ED91FC910280F381E02DBA
:101100000995C816D90609F062C0F801818192815B
:101110006B810C969EDA91E0811159C0892F2DBE0A
:101120003EBE2396CDBFDEBFDF91CF911F910F91C1
:10113000FF90EF90DF90CF90BF90AF909F908F90F7
:101140007F906F905F904F903F902F9008954DB695
:101150005EB6EDB7FEB7E619F709EDBFFEBF8DB776
:101160009EB7019689839A83B12CA12C7601EA1847
:10117000FB086E147F0408F47301F401EA0DFB1DF3
:1011800090E080E05F01A818B9088E159F0568F40B
:101190008191A981BA818C9381E090E0F3CFAC1466
:1011A000BD0420F34DBE5EBEB0CFF80181819281B7
:1011B000DC01ED91FC910280F381E02DA7016981B2
:1011C0007A810995E816F90651F34DBE5EBE90E0AE
:1011D000A5CF0F931F93CF93DF9300D0CDB7DEB78A
:1011E0006A83E0910B39F0910C39309781F0898353
:1011F00021E042E050E0BE016F5F7F4FCF014BDF47
:101200000F900F90DF91CF911F910F9108958F77DD
:10121000898300910D3910910E39D8018D919C91DF
:101220001197009731F01296ED91FC9160817181D8
:10123000C3DB60E0F8018385BEDC6981C8015ADA4E
:101240006A81C80157DA61E0D8011B968C91B3DC42
:10125000F80180819181009799F205DBD1CFCF937E
:10126000DF93CDE1D9E387706770660F660F660F75
:10127000806C862B8883ECE1F9E3942F9770990FAB
:10128000990F990F8081807C622F6770892B862B44
:101290008083B90195E0660F771F9A95E1F787FB88
:1012A000882780F9682B440F551F440F551F642B66
:1012B00085EF8FDF8881682F677090E2699FB001AA
:1012C0001124282F269526952695277094E0299F8E
:1012D00090011124622B8295869586958370682BE8
:1012E00084EFDF91CF9175CF2F923F924F925F9213
:1012F0006F927F928F929F92AF92BF92CF92DF9226
:10130000EF92FF920F931F93CF93DF93CDB7DEB78A
:101310002997CDBFDEBF8C016A0179012DB73EB799
:101320002887398720E041E050E0B5DE89838111CC
:101330001CC019828981288539852DBF3EBF299619
:10134000CDBFDEBFDF91CF911F910F91FF90EF9046
:10135000DF90CF90BF90AF909F908F907F906F90D5
:101360005F904F903F902F900895D80114964D9024
:101370005C9015974E145F0410F11196ED91FC915D
:1013800012979C91990F978741E06E2DCF010C9693
:101390000FD98E151F0469F6EC0CFD1CF801818134
:1013A0009281DC01ED91FC910284F385E02D099599
:1013B000F60181936F01EE16FF0681F7BBCF2DB7C3
:1013C0003EB72C833D838DB79EB7841995098DBF99
:1013D0009EBFADB7BEB71196AA83BB83912C812C5B
:1013E0005701A818B9084A145B0408F45201D8013F
:1013F0001196ED91FC9112979C91990F97876A2D08
:10140000613208F060E240E0CF010C96D1D88A1535
:101410001B0489F52A803B80F101EA0DFB1DEE8358
:10142000FF8331012E813F812615370581F4F601B6
:10143000E80DF91D26143704C9F48A0C9B1C8E1480
:101440009F0470F2EC81FD81EDBFFEBF73CFD80128
:1014500011968D919C91DC01ED91FC910284F385B4
:10146000E02D0995F30181933F01DCCFD1018D91EE
:101470001D018193DFCF1982E5CFCF93DF9300D099
:10148000CDB7DEB7E0910B39F0910C39898322E0BA
:1014900030E0AE014F5F5F4FBA01309749F0CF01A6
:1014A00023DF89819A810F900F90DF91CF9108956A
:1014B00080910D3990910E39C7DBF3CFCF93DF9335
:1014C00000D01F92CDB7DEB7FC0182819381698382
:1014D00023E030E0AE014F5F5F4FBA01009799F013
:1014E00003DF29816A8170E090E080E0982F872FE8
:1014F000762F6627822B2B81622B2396CDBFDEBFF2
:10150000DF91CF910895848195819EDBEACF8F9200
:101510009F92AF92BF92CF92DF92EF92FF920F9382
:101520001F93CF93DF93EC016AEFC8DF0D891E890B
:1015300030E020E0C72ED82EE92EFF24E7FCFA94F5
:10154000C01AD10AE20AF30A57E095958795779574
:1015500067955A95D1F7000F111F221F331F4B01BA
:101560005C01801A910AA20AB30AA5019401AF890D
:10157000B88D0E943E174B015C01FBE0B594A79427
:1015800097948794FA95D1F7A7019601C701B60100
:101590000E9403179B01AC01ACE055954795379528
:1015A0002795AA95D1F7A98DBA8D0E943E179B0168
:1015B000AC01BEE05595479537952795BA95D1F77B
:1015C000280D391D4A1D5B1D2F87388B498B5A8B7F
:1015D000A5E0B0E00E94341760587F4F8F4F9F4FB7
:1015E000672F782F892F992787FD9A950E943514A8
:1015F00020E030E048EC52E40E949B13DF91CF9151
:101600001F910F91FF90EF90DF90CF90BF90AF9020
:101610009F908F9008952F923F924F925F926F927A
:101620007F928F929F92AF92BF92CF92DF92EF9272
:10163000FF920F931F93CF93DF93CDB7DEB76D97D4
:10164000CDBFDEBF8C8F9D8F62DF67EF8C8D9D8D50
:1016500035DF688F798F8A8F9B8FEC8DFD8D878525
:101660009089A189B2896C017D01FF0CCC08DC2C2A
:1016700076019C01AD016C2D7C2D8C2D9C2D345F51
:1016800041405109610971098109910929873A8706
:101690004B875C873B014C0159016A017B018C013E
:1016A0000E944417322E232E4A8B5B8B6C8B7D8BD2
:1016B0008E8B9F8BAC8DBD8D5E963C915E975D96BB
:1016C0002C91932F990F990B492F592F692F792F0F
:1016D000892F0E9444170CE00E942D18522E398346
:1016E0004D875E876F87788B898B492EEC8DFD8DBA
:1016F00030A1278D932F990F990BA32CB22CCA8858
:10170000DB88EC88FD880E891F89492F592F692FA6
:10171000792F892F0E94441708E00E944618A52CB3
:10172000B980CD84DE84EF84F8880989142D0E9465
:10173000631870588F4F9F4FAC8DBD8D5B96ED91A8
:10174000FC915F01D12CC12CE12CF12C8701E983A4
:10175000BA82CB82DC82ED82FE820F831887C12C95
:10176000D12CE12CF12C00E010E00E94441701E2A2
:101770000E9446182983532E4D875E876F87788B8A
:10178000898B492EA0E00E94751809F439C1AC8DEF
:10179000BD8D96963C91969795962C91932F990F87
:1017A000990BA32CB22CCA88DB88EC88FD880E89A3
:1017B0001F89492F592F692F792F892F0E9444178C
:1017C00019014A8B5B8B6C8B7D8B8E8B9F8BEC8D89
:1017D000FD8D34A123A1932F990F990BA984BA846D
:1017E000CB84DC8473018401492F592F692F792F11
:1017F000892F0E94441701E10E942D185101CA88C7
:10180000DB88EC88FD880E891F890E9463185901C6
:101810006A017B01282E192F488D598D6A8D7B8D89
:1018200084E075956795579547958A95D1F780E03F
:1018300090E0A0E1B0E0841B950BA60BB70B3C0138
:101840004D01990C6608762C43019C01AD01662D73
:10185000762D862D962D0FE10E942D18722E832E47
:10186000942E652EB62FA72F382E9987EC8DFD8DDF
:1018700032A121A1932F990F990B492F592F692F2D
:10188000792F892F03E20E942D18022D0E946318E0
:1018900059016A017B018C01272D382D492D562DC8
:1018A0006B2F7A2F832D99850E946C18E5E3AE2E5D
:1018B000FCE0BF2EC12CD12CE12CF12C00E010E07B
:1018C0000E944417A980B52CCD84DE84EF84F8886B
:1018D0000989142D0E94961729873A874B875C87C0
:1018E00069837D878E879F870DE00E944618922E20
:1018F000832E742E652E562E472E382E292EAC8D13
:10190000BD8D9C963C919C979B962C91932F990F03
:10191000990BA92CB82CC72CD62CE52CF42C032D14
:10192000122D492F592F692F792F892F0E94441783
:101930000E94441709E10E944618A984BA84CB8406
:10194000DC84E980FD840E851F850E9463181901DF
:101950002A013B014C01EC8DFD8D32A521A5932F71
:10196000990F990B492F592F692F792F892F0E9491
:10197000441703E10E94461859016A017B018C015A
:101980009101A201B301C4010E94631808E00E9402
:10199000461859016A017B01E82F192FAC8DBD8DC6
:1019A00098963C91989797962C91932F990F990B15
:1019B000492F592F692F792F892F04E00E942D1864
:1019C0000E2F0E9463184BD720E030E040E85BE325
:1019D0000E9437156D96CDBFDEBFDF91CF911F916D
:1019E0000F91FF90EF90DF90CF90BF90AF909F90BE
:1019F0008F907F906F905F904F903F902F900895C1
:101A000060E070E0CB01E6CF0C9432190C943219EF
:101A1000CF93DF93EB01FB01349620E2DF011D92AF
:101A20002A95E9F744E250E060E070E0488359838A
:101A30006A837B83FC0143815481052E000C660B75
:101A4000770B4C835D836E837F8346E050E060E0DC
:101A500070E0488759876A877B872FB7F894409151
:101A600006385091073860910838709109382FBFB7
:101A7000488B598B6A8B7B8B85819681CCDD20E0EE
:101A800030E048EC52E457D66C8B7D8B8E8B9F8B6D
:101A900081E0DF91CF910895CF93DF93EB01FB01BC
:101AA000349620E2DF011D922A95E9F744E250E0E6
:101AB00060E070E0488359836A837B83FC01438143
:101AC0005481052E000C660B770B4C835D836E836F
:101AD0007F834DE050E060E070E0488759876A8777
:101AE0007B872FB7F8944091063850910738609162
:101AF0000838709109382FBF488B598B6A8B7B8BC4
:101B00008581968104DD6C8B7D8B8E8B9F8B81E034
:101B1000DF91CF9108950F931F93CF93DF938C01A3
:101B2000EB0188E2FB0111928A95E9F74BE050E066
:101B30006DE374EBCE010E94BB191B8681E090E03F
:101B4000A0E0B0E08C879D87AE87BF87F8018381D6
:101B50009481092E000CAA0BBB0B888B998BAA8B46
:101B6000BB8B86E090E0A0E0B0E08C8B9D8BAE8BD1
:101B7000BF8B1CA21DA21EA21FA280E090E0A6E9BE
:101B8000B3E48C8F9D8FAE8FBF8F80E090E8A9E883
:101B9000B4E4888F998FAA8FBB8F86EA9BE9A4E46F
:101BA000BCE388A399A3AAA3BBA3DF91CF911F9104
:101BB0000F9108950F931F93CF93DF938C01EB0147
:101BC00088E2FB0111928A95E9F74BE050E06DE362
:101BD00074EBCE010E94BB191B8681E090E0A0E06F
:101BE000B0E08C879D87AE87BF87F80183819481A1
:101BF000092E000CAA0BBB0B888B998BAA8BBB8B75
:101C00008DE090E0A0E0B0E08C8B9D8BAE8BBF8B25
:101C10001CA21DA21EA21FA280E090E0A0E2B2ECD6
:101C20008C8F9D8FAE8FBF8F80E090E0AAEAB2E4E8
:101C3000888F998FAA8FBB8F8AE097EDA3E2BCE3D0
:101C400088A399A3AAA3BBA3DF91CF911F910F9162
:101C50000895EF93FF93EAE1F8E308C0EF93FF9351
:101C6000EAE1F8E332C0EF93E0E053C02F932FB7DF
:101C70002F938F939F93AF93BF936894CF93DF93EA
:101C800020E0C485D8E09489DF01A90FB21FAB5AC8
:101C9000BF4F8C9120E42C838A839F5F9F738D813B
:101CA0002389291302C08F7D8D83948BDF91CF917F
:101CB00016F00C948701BF91AF919F918F912F9156
:101CC0002FBF2F91FF91EF9118952F932FB72F933F
:101CD0008F939F93CF93DF93C485D8E089819881B8
:101CE00081FD0DC0C18981E08C0F8F732289281777
:101CF00031F0CE0FDF2F20E0D21F9D8B818BDF9143
:101D0000CF919F918F912F912FBF2F91FF91EF91A5
:101D10001895FF938F938FB78F93F8E0808184811C
:101D200087FFFCCF85818F7B806885838F918FBFF4
:101D30008F91FF91EF9118951F920F920FB60F920E
:101D400011248F939F93AF93BF9380910638909106
:101D50000738A0910838B09109380196A11DB11D2E
:101D60008093063890930738A0930838B0930938C9
:101D700081E08093960ABF91AF919F918F910F90D0
:101D80000FBE0F901F9018951F920F920FB60F92D3
:101D900011242F933F934F935F936F937F938F9370
:101DA0009F93AF93BF93EF93FF93E091BB38F09174
:101DB000BC388385982F9C70B1F085851092C0380F
:101DC0001092BF38FF91EF91BF91AF919F918F918A
:101DD0007F916F915F914F913F912F910F900FBE27
:101DE0000F901F90189586FF2BC080FF20C081FFA9
:101DF00015C085858093BE380E94DC001092BF38E4
:101E00001092C238E091C338F091C438309709F08D
:101E10000995E091BB38F091BC3807C08585809367
:101E2000BE381092C0381092C13883E032C080E4CE
:101E300083870E94DC001092C0381092C138C2CF54
:101E400087FFC0CF81FF27C084FF0AC08091BD38C3
:101E500087FF06C08F778093BD3882E08287B0CF3E
:101E60008091BD3880688093BD38A091C238809140
:101E7000BF38A81768F4B0E0A953B74C8C91858798
:101E800083E082878091C2388F5F8093C2389ACF77
:101E900082E0828797CF95858091C038803258F450
:101EA000E82FF0E0E951F74C90838091C0388F5FC4
:101EB0008093C038AECF86E08287BDCFFF920F936C
:101EC0001F93CF93DF9310921C3810921D3888EE29
:101ED00093E0A0E0B0E080931E3890931F38A09369
:101EE0002038B093213840ED53EB40931A3850938B
:101EF0001B3840E058E04093263850932738109222
:101F00002838109229381092B1381092B238809344
:101F1000B3389093B438A093B538B093B6388AEEFE
:101F200093EB8093AF389093B03880EA98E0809339
:101F3000BB389093BC3840E856E968E970E080E02F
:101F40008F5F863011F487E00BC0769567955795C3
:101F50004795413099E059079DE36907710580F77E
:101F600034E0F32EF0920839982F9095292F2170A4
:101F700030E044E0220F331F4A95E1F78162822B63
:101F80008093073910920B3910920C398CE190E054
:101F90000E949618EC0187E08B878AE08C8789E0A5
:101FA0008E8788E08D8724E234E02D8B3E8B91E094
:101FB0009A8F24E034E02F87388B92E09F8B48E0A3
:101FC00054E04B8B5C8BF88E298B3A8B898F80E4A5
:101FD00092E4AFE0B0E08C839D83AE83BF8381E069
:101FE00090E0888799871A861B8E82E090E00E9495
:101FF0009618FC0140E856E968E970E090E09F5FC0
:10200000963011F497E00BC07695679557954795F4
:10201000413482E458078FE06807710580F784E057
:102020008183892F8095082F017010E084E0000FD4
:10203000111F8A95E1F79162902B9083EA83FB83CD
:102040001882198209E019E3C0930D39D0930E3933
:1020500087E090E00E949618FC0182E294EB808376
:10206000918388E191E08383948305831683E093D1
:102070000F39F093103987E090E00E949618FC0128
:1020800084E194EB80839183138214820583168309
:10209000E0931139F0931239DF91CF911F910F9195
:1020A000FF900895CF93DF931F92CDB7DEB788EDF1
:1020B00090E084BF9093610083E0809301069FE0ED
:1020C0009093080691E29093000690EA909302069E
:1020D0009AE090930B0691E09093030A2EEF2093E1
:1020E000260A2093270A2BE02093000A2FE037E2EC
:1020F00020939C0A30939D0A9093950A1092910A1E
:102100008093900A7894789410E061E0812F0E9487
:102110005E061F5F1B30C9F762E083E00E945E0627
:1021200040E052EC61E070E08AE198E30E949105A2
:1021300084E494EB0E9440078AE394EB0E944007FA
:1021400000910D3910910E390115110509F040C0AB
:1021500080910B3990910C39009711F00E9432193F
:1021600086E090E0E3D72091093930910A3946E7BB
:10217000DC014C9311962D933C93129713961C926D
:10218000139720E230E014962D933C93159780939B
:102190000B3990930C390E949A0581115DC00AEFAA
:1021A00010E0F8016491662341F08AE198E30E940F
:1021B00088010F5F1F4F892BA1F78AE394EB0E94E0
:1021C00040076AE070E080E090E00E943702F9CFBB
:1021D00061E0F80183850E945E0661E0D8011B96EC
:1021E0008C910E94DB05D801ED91FC91309709F4A8
:1021F0008BC1858181110CC01682178210861186D1
:1022000012861386148615861686178681E08583C6
:102210008091E3058C7F9481892B8093E30561E0B5
:1022200088E00E945E0661E08AE00E945E0680917E
:10223000C10884608093C1088091C0088162809346
:10224000C00890910739809108399093C008809315
:10225000C10881E0F801838F80910B3990910C398E
:10226000009709F47CC120ED298321E030E0AE0124
:102270004F5F5F4FBA0138D88981883509F08FCF19
:1022800088E8FBD880931E3990931F398AE8F5D8E7
:1022900080932039909321398CE8EFD880932239AC
:1022A000909323398EE8E9D8809324399093253987
:1022B00080E9E3D8809326399093273982E9DDD8E5
:1022C000809328399093293984E9D7D880932A3983
:1022D00090932B3986E9D1D880932C3990932D395E
:1022E00088E9CBD880932E3990932F398AE9C5D8C5
:1022F00080933039909331398CE9BFD8809332394B
:10230000909333398EE9B9D8809334399093353925
:1023100030E020E050E040E065E070E085E090E0F3
:102320000E942F0964E670E080E090E00E9437028E
:1023300022E030E042E050E063E070E081E090E0D5
:102340000E942F0989E099E366D920E030E048EC4B
:1023500052E4F1D120E030E04FE754E4ECD121E049
:102360003EED42E45EE3E6D39B01AC0160E070E049
:1023700080E89FE377D120E03AE24DE257E477D35B
:1023800060930E3870930F38809310389093113803
:102390008AE198E30E944701892B71F08AE494EB6B
:1023A0000E94400760910E3870910F38809110386C
:1023B000909111380E9489078FB7F8948090063861
:1023C00090900738A0900838B09009388FBF9401DA
:1023D000A50160E070E080E090E0A0901238B0903D
:1023E0001338C0901438D0901538E0901638F0901B
:1023F000173800911838109119386ED6283E33409E
:10240000410551056105710581059105A9F2A0F20B
:102410008FB7F8940091063810910738209108384A
:10242000309109388FBF00931238109313382093DE
:1024300014383093153810921638109217381092BD
:1024400018381092193889E099E3E5D820E030E097
:1024500048EC52E470D120E030E04FE754E46BD117
:1024600021E03EED42E45EE365D39B01AC0160E018
:1024700070E080E89FE3F6D020E03AE24DE257E4D6
:10248000F6D220910E3830910F384091103850918B
:102490001138E8D06B017C0120910A3830910B385B
:1024A00040910C3850910D38DED2181644F4C09289
:1024B0000A38D0920B38E0920C38F0920D388AE14D
:1024C00098E30E944701892B41F08EE594EB0E942E
:1024D0004007C701B6010E9489078AE198E30E947C
:1024E0004701892B09F468CF8091080487FD64CFE8
:1024F00080E090E078D06B017C018AE594EB0E944B
:102500004007C701B60156CF61E0F80184850E94FB
:102510005E06D8011A968C911A978230E0F460E03A
:102520001C968C910E94DB05D8011D968C918F3FE3
:1025300041F061E00E945E0661E0F80185850E943D
:10254000DB05D8011E968C918F3F09F482CE60E0A6
:102550000E945E067ECE61E0F8018485E3CF80EDC7
:10256000898321E030E0AE014F5F5F4FBA01809177
:102570000D3990910E390E9424067ECECF93DF93C1
:10258000C0910D39D0910E39209739F08A819B8105
:10259000009709F067D6CE0165D680910B399091EE
:1025A0000C39009709F05ED680910F39909110395F
:1025B000009739F0DC01ED91FC910280F381E02D70
:1025C00009958091113990911239009749F0DC01F9
:1025D000ED91FC910280F381E02DDF91CF91099480
:1025E000DF91CF91089509D06081718182819381BB
:1025F000089503D0808199270895FC01E050FC4E96
:1026000008952F923F924F925F926F927F928F9296
:102610009F92AF92BF92CF92DF92EF92FF920F9371
:102620001F93CF93DF93CDB7DEB7CA1BDB0BCDBFB4
:10263000DEBF09942A88398848885F846E847D8447
:102640008C849B84AA84B984C884DF80EE80FD805A
:102650000C811B81AA81B981CE0FD11DCDBFDEBFF8
:10266000ED0108955058BB27AA270ED0C2C1B3D19F
:1026700030F0B8D120F031F49F3F11F41EF498C12E
:102680000EF4E095E7FB8EC1E92FC4D180F3BA17B1
:10269000620773078407950718F071F49EF5DCC193
:1026A0000EF4E0950B2EBA2FA02D0B01B90190016D
:1026B0000C01CA01A0011124FF27591B99F0593FB1
:1026C00050F4503E68F11A16F040A22F232F342FF9
:1026D0004427585FF3CF469537952795A795F04047
:1026E0005395C9F77EF41F16BA0B620B730B840B5C
:1026F000BAF09150A1F0FF0FBB1F661F771F881F14
:10270000C2F70EC0BA0F621F731F841F48F487956B
:1027100077956795B795F7959E3F08F0B3CF93955A
:10272000880F08F09927EE0F97958795089516D191
:1027300008F481E008950CD05CC154D140F04BD135
:1027400030F021F45F3F19F02DC1511186C130C125
:1027500061D198F39923C9F35523B1F3951B550B18
:10276000BB27AA2762177307840738F09F5F5F4F64
:10277000220F331F441FAA1FA9F333D00E2E3AF0A5
:10278000E0E830D091505040E695001CCAF729D0BF
:10279000FE2F27D0660F771F881FBB1F261737070E
:1027A0004807AB07B0E809F0BB0B802DBF01FF273E
:1027B00093585F4F2AF09E3F510568F0F3C04DC11A
:1027C0005F3FECF3983EDCF3869577956795B79578
:1027D000F7959F5FC9F7880F911D9695879597F993
:1027E0000895E1E0660F771F881FBB1F621773070C
:1027F0008407BA0720F0621B730B840BBA0BEE1F21
:1028000088F7E09508950ED188F09F5790F0B92F82
:102810009927B751A0F0D1F0660F771F881F991F35
:102820001AF0BA95C9F712C0B13081F015D1B1E0F4
:10283000089512C1672F782F8827B85F39F0B93F04
:10284000CCF3869577956795B395D9F73EF4909537
:102850008095709561957F4F8F4F9F4F089597FB9F
:102860000EF4A9D03EC0E89409C097FB3EF49095C1
:102870008095709561957F4F8F4F9F4F9923A9F059
:10288000F92F96E9BB279395F695879577956795E8
:10289000B795F111F8CFFAF4BB0F11F460FF1BC02C
:1028A0006F5F7F4F8F4F9F4F16C0882311F096E9BF
:1028B00011C0772321F09EE8872F762F05C066236D
:1028C00071F096E8862F70E060E02AF09A95660F26
:1028D000771F881FDAF7880F9695879597F90895DF
:1028E000E894F92F96EBFF2381F0121613061406D5
:1028F000440B9395F6958795779567955795404046
:10290000FF23B9F71BC099270895882351F49850E5
:10291000D2F7872B762F652F542F432F322F20E0AD
:10292000B1F3121613061406440B88233AF09A9555
:10293000440F551F661F771F881FCAF755234AF497
:10294000440F551F11F460FF04C06F5F7F4F8F4F1E
:102950009F4F880F9695879597F90895990F0008CE
:10296000550FAA0BE0E8FEEF16161706E807F90761
:10297000C0F012161306E407F50798F0621B730BFC
:10298000840B950B39F40A2661F0232B242B252B7D
:1029900021F408950A2609F4A140A6958FEF811D20
:1029A000811D089597F99F6780E870E060E00895C1
:1029B0009FEF80EC08959095809570956095509567
:1029C0004095309521953F4F4F4F5F4F6F4F7F4F51
:1029D0008F4F9F4F089500240A9416161706180665
:1029E0000906089500240A94121613061406050613
:1029F0000895092E0394000C11F4882352F0BB0FA4
:102A000040F4BF2B11F460FF04C06F5F7F4F8F4F06
:102A10009F4F089557FD9058440F551F59F05F3F41
:102A200071F04795880F97FB991F61F09F3F79F0F0
:102A300087950895121613061406551FF2CF469572
:102A4000F1DF08C0161617061806991FF1CF8695F4
:102A50007105610508940895E894BB2766277727D8
:102A6000CB0197F908957ADF08F48FEF08950BD022
:102A7000C0CFB1DF28F0B6DF18F0952309F092CF70
:102A800097CF1124EACFC6DFA0F3959FD1F3950F1E
:102A900050E0551F629FF001729FBB27F00DB11DE2
:102AA000639FAA27F00DB11DAA1F649F6627B00D72
:102AB000A11D661F829F2227B00DA11D621F739F5B
:102AC000B00DA11D621F839FA00D611D221F749F69
:102AD0003327A00D611D231F849F600D211D822FB0
:102AE000762F6A2F11249F5750408AF0E1F08823F7
:102AF0004AF0EE0FFF1FBB1F661F771F881F915004
:102B00005040A9F79E3F510570F04CCFA6CF5F3FD4
:102B1000ECF3983EDCF3869577956795B795F79536
:102B2000E7959F5FC1F7FE2B880F911D96958795BE
:102B300097F90895FA01EE0FFF1F30962105310530
:102B400099F16115710561F48038BFE39B0749F184
:102B500068949038810561F08038BFEF9B0741F0A1
:102B6000992342F5FF3FE1053105210511F1E89474
:102B70000894E795D901AA2329F4AB2FBE2FF85F5B
:102B8000D0F310C0FF5F70F4A695E0F7F73950F06E
:102B900019F0FF3A38F49F779F930CD00F9007FC01
:102BA000905808953EF004CF60E070E080E89FE325
:102BB00008954FE79F775F934F933F932F93A2D052
:102BC0002F913F914F915F9152DF09C0C7DE880B73
:102BD000990B089519F40EF0E5CE3ECFE9CE22DF31
:102BE000C8F39638C0F707F80F92E8942BE33AEA57
:102BF00048EB5FE74ADF0F920F920F924DB75EB737
:102C00000F92C0D0E8E7F0E016D04F915F91EF91BE
:102C1000FF91E595EE1FFF1F49F0FE57E06844273E
:102C2000EE0F441FFA95E1F74195550B32D00F9006
:102C300007FE26C00895DF93CF931F930F93FF9253
:102C4000EF92DF927B018C01689405C0DA2EEF01D0
:102C50001ADFFE01E894A591259135914591559192
:102C6000AEF3EF0111DDFE019701A801DA9479F7C7
:102C7000DF90EF90FF900F911F91CF91DF9108951A
:102C80009B01AC0160E070E080E89FE354CD8ACE08
:102C9000ACC0C8DEE8F39923D9F3940F511DBBF300
:102CA0009150504094F059F0882332F0660F771F0E
:102CB000881F91505040C1F79E3F510544F7880F3F
:102CC000911D9695879597F908955F3FACF0983ED2
:102CD0009CF0BB27869577956795B79508F4B1600A
:102CE0009395C1F7BB0F58F711F460FFE8CF6F5F02
:102CF0007F4F8F4F9F4FE3CFB0CE0EF076C058CEB0
:102D0000689450CE8FDEC8F39923D1F3C6F3DF93D6
:102D1000CF931F930F93FF92C92FDD2788232AF0AB
:102D20002197660F771F881FDAF720E030E040E830
:102D30005FEB9FE3883920F0803E30F021968F775B
:102D400092DCE0EAF0E003C08EDCEDECF0E073DF53
:102D50008B01BE01EC01FB2E6F5771097595771F32
:102D6000880B990B82DD28E132E741E35FE38BDEDC
:102D7000AF2D9801AE01FF900F911F91CF91DF9180
:102D800083DC37CEFA01DC01AA0FBB1F9B01AC012B
:102D9000BF5728F422273327442750781FC0B75144
:102DA00088F4AB2F0024469537952795011CA395F1
:102DB000D2F3002069F0220F331F441FB395DAF3DA
:102DC0000DD050CC61307105A0E88A07B94630F4C7
:102DD0009B01AC016627772788279078309621F0F1
:102DE000208331834283538308959F3F31F0915074
:102DF00020F4879577956795B795880F911D9695DF
:102E0000879597F90895DB018F939F932DD0BF91FC
:102E1000AF91A29F800D911DA39F900DB29F900D29
:102E200011240895A1E21A2EAA1BBB1BFD010DC09F
:102E3000AA1FBB1FEE1FFF1FA217B307E407F5076A
:102E400020F0A21BB30BE40BF50B661F771F881F46
:102E5000991F1A9469F760957095809590959B01DC
:102E6000AC01BD01CF01089552D1A59F900DB49F33
:102E7000900DA49F800D911D11240895B7FFF4CFEC
:102E8000F3DF821B930B0895DF93CF931F930F9370
:102E90009A9DF02D219FF00D8B9DF00D8A9DE02DC8
:102EA000F10D039FF00D029FE00DF11D4E9DE00D11
:102EB000F11D5E9DF00D4F9DF00D7F936F93BF92BE
:102EC000AF925F934F93D50122D18B01AC01D70113
:102ED0001ED1EB01E80FF91FD6011ED02F913F91B3
:102EE000D60115D1C60FD71FE81FF91FAF91BF91AB
:102EF00013D02F913F910BD1C60FD71FE81FF91F99
:102F0000D60105D1E60FF71F9801BE01CF010F9141
:102F10001F91CF91DF910895FAD0460F571FC81F18
:102F2000D91F08F431960895689401C0E894F92FE8
:102F3000F12B0AF027C0A0E0B0E0E0EAF7E167CBB0
:102F4000092E05941AF479D0112392F4F0E80F2693
:102F5000FFEFE094F09400951095B094C094D09455
:102F6000A194BF0ACF0ADF0AEF0AFF0A0F0B1F0B5B
:102F700013D007FC62D0CDB7DEB7ECE061CB68942C
:102F800001C0E8948F929F92CF93DF9305D0DF9199
:102F9000CF919F908F90089588249924F401E401A3
:102FA000B0E49F93AA279A158B049C04ED05FE05B7
:102FB000CF05D007A10798F4AD2FDC2FCF2FFE2F20
:102FC000E92D982C892E982F872F762F652F542F37
:102FD000432F322F2227B85031F7BF9127C01B2E25
:102FE000BF91BB27220F331F441F551F661F771F3A
:102FF000881F991F881C991CEE1FFF1FCC1FDD1F07
:10300000AA1FBB1F8A149B04EC05FD05CE05DF0536
:10301000A007B10748F08A189B08EC09FD09CE0902
:10302000DF09A00BB10B21601A94E1F62EF4940194
:10303000AF01BE01CD01000C08956095709580959B
:10304000909530954095509521953F4F4F4F5F4F4C
:103050006F4F7F4F8F4F9F4F0895002E083090F095
:10306000982F872F762F652F542F432F322F22270B
:103070000850F4CF220F331F441F551F661F771FC0
:10308000881F991F0A95B2F7002D089597FD109497
:10309000002E083098F00850232F342F452F562F3C
:1030A000672F782F892F912DF4CF159497958795B9
:1030B0007795679557954795379527950A95AAF778
:1030C0001124002D08952A0D3B1D4C1D5D1D6E1D04
:1030D0007F1D801F911F08952A193B094C095D0926
:1030E0006E097F09800B910B08950024A7FD0094C1
:1030F0002A173005400550056005700580059005CC
:103100000895EE0FFF1F0590F491E02D0994A29F02
:10311000B001B39FC001A39F700D811D1124911DAB
:10312000B29F700D811D1124911D08950F931F935F
:10313000CF93DF938230910510F482E090E0E0912C
:103140003839F091393930E020E0B0E0A0E0309734
:1031500099F42115310509F44AC0281B390B243094
:103160003105D8F58A819B816115710589F1FB01D3
:1031700082839383FE0111C04081518102811381BA
:1031800048175907E0F04817590799F4109761F06C
:1031900012960C93129713961C933296CF01DF91DF
:1031A000CF911F910F9108950093383910933939B9
:1031B000F4CF2115310551F04217530738F0A9011A
:1031C000DB019A01BD01DF01F801C1CFEF01F9CFA9
:1031D0008093383990933939CDCFFE01E20FF31F38
:1031E000819391932250310928833983D7CF20913D
:1031F000363930913739232B41F420910238309100
:103200000338209336393093373920910038309184
:1032100001382115310541F42DB73EB740910438EE
:1032200050910538241B350BE0913639F091373930
:10323000E217F307A0F42E1B3F0B2817390778F08D
:10324000AC014E5F5F4F2417350748F04E0F5F1FEC
:103250004093363950933739819391939FCFF0E063
:10326000E0E09CCFCF93DF930097E9F0FC01329729
:1032700012821382A0913839B0913939ED0130E0D2
:1032800020E01097A1F420813181820F931F2091BB
:103290003639309137392817390709F061C0E09382
:1032A0003639F0933739DF91CF910895EA01CE177F
:1032B000DF07E8F54A815B819E0141155105B1F7B1
:1032C000E901EA83FB8349915991C40FD51FEC179B
:1032D000FD0761F4808191810296840F951FE901B9
:1032E00088839983828193818A839B83F0E0E0E0E5
:1032F00012968D919C9113970097B9F52D913C9161
:103300001197CD010296820F931F2091363930918B
:1033100037392817390739F6309751F5109238396F
:1033200010923939A0933639B0933739BCCFC28364
:10333000D38340815181840F951FC817D90761F449
:103340004E5F5F4F88819981480F591F4083518399
:103350008A819B81828393832115310509F0B0CF47
:10336000E0933839F09339399ECFFD01DC01C0CFAD
:1033700012821382D7CFFB01DC014150504048F04C
:1033800001900D920020C9F701C01D92415050409C
:10339000E0F7089510E0C6EAD0E003C0FE01B1DE18
:0C33A0002196C73AD107D1F7F894FFCF6F
:1033AC00101000000010101000001000040506079B
:1033BC0003020100010203000504060708090A00C4
:1033CC00000000008801E9001601D4014701250125
:1033DC00390191058A065301E80100000000C3027F
:1033EC009502D50261028F027D0269021020408095
:1033FC00080402010204080100000000010101019F
:10340C0000000000000000003104060D3204080D1D
:10341C008B0D000000003104040D32044C0DDA0D4C
:10342C006E616E00696E66006F7666002E000D0A86
:10343C0000424D5032383000535441525400494EE2
:10344C00495449414C2048494748543A09004D6178
:0A345C00782048696768743A090097
:0634660000003A3980006D
:00000001FF
