:100000007DC00000A3C00000A1C000009FC0000090
:100010009DC000009BC0000099C0000097C0000078
:1000200095C0000093C0000091C000008FC0000088
:100030008DC000008BC0000089C0000087C0000098
:1000400085C00000F7C60000F0C60000F8C600003A
:100050007DC000007BC0000079C0000077C00000B8
:1000600075C0000054C7000071C000006FC00000E0
:100070006DC000006BC0000007634236B79BD8A775
:100080001A39685618AEBAAB558C1D3CB7CC5763BD
:10009000BD6DEDFD753EF6177231BF000000803F6B
:1000A00008000000BE922449123EABAAAA2ABECD87
:1000B000CCCC4C3E00000080BEABAAAAAA3E0000F9
:1000C0000000BF000000803F0000000000084178F1
:1000D000D3BB4387D1133D190E3CC3BD4282AD2B28
:1000E0003E68EC8276BED98FE1A93E4C80EFFFBE20
:1000F00001C4FF7F3F0000000000AF0711241FBEB6
:10010000CFEFCDBFDFE3DEBF8091400080934000A2
:10011000811105C098ED21E094BF209341008CBB74
:1001200028E3A0E0B8E301C01D92AF3DB207E1F7BC
:1001300010E0CEE7D0E004C02197FE010E94550FE9
:10014000CD37D107C9F754D70C946A0F59CF0000A7
:100150008093C4088091C30887FFFCCF8091C408B6
:100160000895AF92BF92CF92DF92EF92FF920F93DA
:100170001F93CF93DF936C017B018B01040F151F3D
:10018000EB015E01AE18BF08C017D10759F06991A5
:10019000D601ED91FC910190F081E02DC601099509
:1001A000892B79F7C501DF91CF911F910F91FF90B6
:1001B000EF90DF90CF90BF90AF900895FC015389EE
:1001C0004489252F30E0842F90E0821B930B541735
:1001D00010F0CF96089501970895FC0191898289C6
:1001E000981761F0A289AE0FBF2FB11D55968C9163
:1001F00092899F5F9F73928B90E008958FEF9FEF9E
:100200000895FC0191898289981731F08289E80F5D
:10021000F11D858990E008958FEF9FEF0895FC010F
:1002200091892289892F90E0805C9F4F821B9109E0
:100230008F7399270895CF93DF93EC01E881F981BB
:100240000680F781E02D0995EC85FD858681168273
:100250008581158280E484838A89898B188ADF915D
:10026000CF910895FC010FB607FE04C080911101E3
:100270008823A1F0A485B58514968C91149785FFE9
:100280000DC093898489981739F015968C9115972C
:100290008F7D15968C930895E894DCC508950F938F
:1002A0001F93CF93DF93EC018889982F9160988BEF
:1002B0002B899C8929130AC0EC85FD85948195FFC3
:1002C00005C081FD0DC080E4848312C0062F1B8908
:1002D0001F5F1F738C89811315C0CE01C3DFFACF56
:1002E00085818F77806490E49483EC85FD85858398
:1002F000EC85FD85628381E090E0DF91CF911F91D5
:100300000F910895EB89EC0FFD2FF11DEB5AFF4F74
:1003100000831B8BEC85FD85888981FF09C0858161
:100320008F77806690E49483EC85FD858583E3CFA9
:1003300085818062FBCFCF93DF93EC01888988238E
:1003400059F0EC85FD85858185FD03C0848186FD9E
:1003500003C0CE0187DFF5CFDF91CF91089581E013
:1003600008959FB7F894E0919A0AF0919B0A8091C2
:10037000960A209104383091053840910638509102
:1003800007389FBF80FF08C0CF018827892B21F441
:100390002F5F3F4F4F4F5F4F0F01169407941694F6
:1003A000079416940794F0011694079416940794F2
:1003B000E019F109169407940694102C16941694DB
:1003C000011816941694010C1124E00DF11DA8EEED
:1003D000B3E00E94080E6E0F7F1F811D911D0895CE
:1003E000CF92DF92EF92FF92CF93DF936B017C016C
:1003F000B8DFEB01B6DF6C1B7D0B683E7340A0F0ED
:10040000C114D104E104F10439F4DF91CF91FF90DC
:10041000EF90DF90CF90089581E0C81AD108E108ED
:10042000F108C851DC4FE6CFC114D104E104F10456
:1004300009F7EBCFDC01ED91FC910088F189E02D0B
:1004400023E030E00994FC0101900020E9F73197A6
:10045000AF01481B590BBC018CE298E382CE8F920E
:100460009F92AF92BF920F931F93CF93DF93CDB71D
:10047000DEB7A197CDBFDEBF19A2423008F44AE033
:100480008E010F5D1F4F842E912CB12CA12CA50144
:1004900094010E94E60DE62FB901CA01EA30D4F4B6
:1004A000E05DD801EE938D01232B242B252B79F7CA
:1004B00090E080E0109711F0CD01C5DFA196CDBF8F
:1004C000DEBFDF91CF911F910F91BF90AF909F90B2
:1004D0008F900895E95CE5CFCF92DF92EF92FF9283
:1004E000CF93DF936B017C016DE28CE298E3D7DE62
:1004F000EC0166277727CB016C197D098E099F09CE
:100500004AE0ADDF8C0F9D1FDF91CF91FF90EF9000
:10051000DF90CF90089597CF4F925F926F927F9226
:100520008F929F92AF92BF92CF92DF92EF92FF9203
:100530006B017C01AC019B010E94BA0C8823B1F0D5
:100540008EE19FE980DF7C018CE29FE97CDF8E0DEC
:100550009F1DFF90EF90DF90CF90BF90AF909F9046
:100560008F907F906F905F904F9008954601570154
:10057000E894B7F82FEF3FEF4FE75FE7C501B4010D
:100580000E94BA0C81110CC02FEF3FEF4FE75FE7DD
:10059000C501B401F2D718161CF482E29FE9D2CF4C
:1005A0002FEF3FEF4FE75FE4C701B6010E94070C52
:1005B00018161CF486E29FE9C5CF2FEF3FEF4FE7F7
:1005C0005FECC701B601D9D787FDF4CF20E030E05A
:1005D000A901C701B601D1D7B12CA12C87FF09C051
:1005E0006DE28CE298E35BDE5C01F7FAF094F7F8D9
:1005F000F0942AE037ED43EA5BE3C701B60159D72F
:100600002B013C010E94290B6B017C010E94550BC0
:100610009B01AC01C301B2014BD72B013C014AE065
:10062000C701B6011CDF7C01EA0CFB1C8AE29FE9D2
:100630000ADFE80EF91E20E030E040E251E4C30199
:10064000B2010E940B0C2B013C010E94290B4B01B3
:10065000B12CA12C4AE0C501B40101DFE80EF91E5E
:10066000C501B4010E94550B9B01AC01C301B2014D
:100670001FD720E030E040E251E40E940B0CE9D7A4
:1006800090E080E04AE0EBDEE80EF91E5DCF91E0FD
:10069000811116C0909326049091200490FD0AC009
:1006A0009FB7F89481110FC080913004877F8093A9
:1006B00030049FBF8091010A8E7F8093010A0895C4
:1006C00090932504E9CF809130048860F0CFEF92B9
:1006D000FF920F931F93CF93DF93C82F062F7A01BA
:1006E00080E0D5DF8C2F33DDE70110E0CE018E19DD
:1006F0009F098017910724F480E029DD8993F6CFC4
:1007000081E0DF91CF911F910F91FF90EF90BFCFCC
:100710008C30F0F490E0FC01E850F14620812F3F4E
:10072000B9F0FC01E451F146E081E295EE0FF0E012
:10073000F460613071F4218380529146DC018C9128
:100740008061E80FF11D8081613031F08860808325
:10075000089522832583F0CF877FF9CF8F929F92D0
:10076000AF92BF92EF92FF920F931F93CF93DF93BD
:100770008C014A015B01E901DC0150968C91509794
:1007800080FF07C0ED91FC910288F389E02DC8013C
:100790000995C11101C0C3E0EC2EE894E2F8FD2EEA
:1007A000CD2FD095D07CB1ED8B16B2E19B06B3E195
:1007B000AB06B10428F0D260B694A79497948794BE
:1007C00060E074EB84EC94E0A50194010E94E60DD6
:1007D0002034310510F420E430E0F2FCD8608C2F96
:1007E0008B72D7FD8068CD2FC87C83FF07C0C83CC3
:1007F00029F4F80190899260908BC8ED80FDC1606A
:10080000FFB6F894D8011C96ED91FC911682E78210
:100810002087318785FF4DC0CF7791E094879FEF88
:1008200095878F7D8583D683F8014785868590914E
:10083000E2052CEF811123EF9223242F30E050E0CA
:10084000811152E0B90101C0660F5A95EAF7962B63
:100850009093E205433009F1820F932F911D880F89
:10086000991F880F991F8C0108521146C6FF23C09B
:10087000C3FD21C061E0D8018C914ADFC7FF07C0EA
:10088000C4FD05C062E0D80111968C9141DFC0FF24
:1008900004C061E0F80183813BDFFFBEDF91CF91AF
:1008A0001F910F91FF90EF90BF90AF909F908F900E
:1008B00008951486B6CF2C2F207501F388529146E7
:1008C00062E0FC018081D9CF2F923F924F925F92DC
:1008D0006F927F928F929F92AF92BF92CF92DF9250
:1008E000EF92FF920F931F93CF93DF93CDB7DEB7B5
:1008F000E197CDBFDEBFAE014F5F5F4F66E087EF90
:10090000E6DE2C814D818E8190E0B0E0A22F50E098
:10091000542F4427052E000C660B770B842B952B48
:10092000A62BB72B409114385091153870E060E039
:10093000C92EDA2EEB2EFF24E7FCFA94C41AD50A4E
:10094000E60AF70A27E0B595A795979587952A9522
:10095000D1F7440F551F661F771F4C015D01841AA4
:10096000950AA60AB70AA5019401A0911638B0917C
:1009700017380E94120E4B015C014BE0B594A7940E
:10098000979487944A95D1F7A7019601C701B601BC
:100990000E94D70D9B01AC016CE0559547953795AA
:1009A00027956A95D1F7A0911838B09119380E940F
:1009B000120EEEE09595879577956795EA95D1F7B4
:1009C00095018401060F171F281F391F0F87188BE9
:1009D000298B3A8B8090203888AA909021389BA24E
:1009E000809022388EA6909023389C8E8090243858
:1009F00089AA909025389B8A809026388FA690905F
:100A000027389AA2809028388CA6909029389A8E00
:100A100080902A388DA690902B389B8E89808E8A64
:100A20009A809AA68B808BA668017901FF0CCC086E
:100A3000DC2C76012F85388949895A896C2D7C2DCB
:100A40008C2D9C2D345F4140510961097109810948
:100A500091092F83388749875A876B877C878D87D1
:100A60009E8759016A017B018C010E94180E2C8B14
:100A70003D8B4CA35DA36EA37FA388A799A730915C
:100A80001D3820911C38932F990F990B492F592FFE
:100A9000692F792F892F0E94180E0CE00E94010FF8
:100AA00019012A013B014C0130911F3820911E3859
:100AB000932F990F990BAC88BD88CCA0DDA0EEA038
:100AC000FFA008A519A5492F592F692F792F892F24
:100AD0000E94180E08E00E941A0F51016201730172
:100AE00084010E94370F70588F4F9F4F20901A3803
:100AF00030901B385101C12CD12CE12CF12C00E09D
:100B000010E00E94180E01E20E941A0F2D8F3E8FF6
:100B10004F8F58A369A3272E382E492EA0E00E949C
:100B2000490F09F47EC19BA4492D50E070E060E0BC
:100B30008E8868299AA4892D90E0982F8827092EFD
:100B4000000CAA0BBB0B4C015D01842A952AA62A36
:100B5000B72A8E8A9F8AA88EB98E29A99B89990F58
:100B6000990BAC88BD88CCA0DDA0EEA0FFA008A5A5
:100B700019A53B89492F592F692F792F892F0E9459
:100B8000180E2B8B3C8B4D8B552E3B014C012EA50B
:100B90009C8D990F990BAF80B884C984DA84EB845B
:100BA000FC840D851E853C8D492F592F692F792F87
:100BB000892F0E94180E01E10E94010FAB88BC88AA
:100BC000CD88D52C730184010E94370F59016A0129
:100BD0007B01582E192F4E895F89688D798DE4E04D
:100BE0007595679557954795EA95D1F780E090E020
:100BF000A0E1B0E0841B950BA60BB70B3C014D01A7
:100C0000990C6608762C43019C01AD01662D762D6A
:100C1000862D962D0FE10E94010F39014A01B62F52
:100C2000A72FF82FE92F28A99BA1990F990B3BA17A
:100C3000492F592F692F792F892F03E20E94010F25
:100C4000052D0E94370F59016A017B018C01930128
:100C5000A4016B2F7A2F8F2F9E2F0E94400FA5E3A8
:100C6000AA2EBCE0BB2EC12CD12CE12CF12C00E033
:100C700010E0DED7AD8CBE8CCF8CD8A0E9A0F22CD2
:100C8000032D142D0E946A0E2F83388749875A87B7
:100C90006B877C878D879E870DE00E941A0F322E0E
:100CA000292E2DA59B8D990F990BA32CB32EC42E05
:100CB000D52EE62EF72E082F122D3B8D492F592FBA
:100CC000692F792F892FB4D7B3D709E10E941A0F62
:100CD000AF80B884C984DA84EB84FC840D851E85DA
:100CE0000E94370F19012A013B014C012CA59A8D56
:100CF000990F990B3A8D492F592F692F792F892FE9
:100D000097D703E10E941A0F59016A017B018C01F8
:100D10009101A201B301C4010E94370F08E00E94B3
:100D20001A0F59016A017B01E82F192F2FA59AA1EB
:100D3000990F990B3AA1492F592F692F792F892F94
:100D400004E00E94010F0E2F0E94370FB901CA0163
:100D5000ACD420E030E040E85BE35DD520E030E05B
:100D600048EC52E40ED44B015C0120E030E04FE748
:100D700054E407D421E03EED42E45EE3AFD59B01AD
:100D8000AC0160E070E080E89FE392D320E03AE2BB
:100D90004DE257E440D56B017C018CE298E33FDAE9
:100DA000892B39F18FE29FE9B6DBA5E0B0E02F8512
:100DB000388949895A892CD760587F4F8F4F9F4F68
:100DC000672F782F892F992787FD9A9570D420E077
:100DD00030E048EC52E4D5D39FDB82E49FE99BDB13
:100DE000C501B40199DB82E59FE995DBC701B60136
:100DF00093DBC701B601E196CDBFDEBFDF91CF9196
:100E00001F910F91FF90EF90DF90CF90BF90AF9028
:100E10009F908F907F906F905F904F903F902F901A
:100E2000089560E070E0CB0199CFEF93FF93ECE27F
:100E3000F8E308C0EF93FF93ECE2F8E331C0EF93DF
:100E4000E0E052C02F932FB72F938F939F93AF93D0
:100E5000BF936894CF93DF9320E0C485D8E0948952
:100E6000DF01A90FB21FAB5ABF4F8C9120E42C8336
:100E70008A839F5F9F738D812389291302C08F7D91
:100E80008D83948BDF91CF910EF008CABF91AF9103
:100E90009F918F912F912FBF2F91FF91EF911895D7
:100EA0002F932FB72F938F939F93CF93DF93C48567
:100EB000D8E08981988181FD0DC0C18981E08C0FC6
:100EC0008F732289281731F0CE0FDF2F20E0D21F39
:100ED0009D8B818BDF91CF919F918F912F912FBF10
:100EE0002F91FF91EF911895FF938F938FB78F9369
:100EF000F8E08081848187FFFCCF85818F7B8068CB
:100F000085838F918FBF8F91FF91EF9118951F92DD
:100F10000F920FB60F9211248F939F93AF93BF93AD
:100F20008091043890910538A0910638B091073827
:100F30000196A11DB11D8093043890930538A093AC
:100F40000638B093073881E08093960ABF91AF913D
:100F50009F918F910F900FBE0F901F901895109238
:100F60002E3810922F3888EE93E0A0E0B0E0809306
:100F7000303890933138A0933238B093333888E0CA
:100F80009FE980932C3890932D3880E098E08093EF
:100F900038389093393810923A3810923B3840E8FC
:100FA00056E968E970E080E08F5F863011F487E0F1
:100FB0000BC07695679557954795413099E059074D
:100FC0009DE36907710580F794E09093DE38982FD0
:100FD0009095292F217030E094E0220F331F9A95CD
:100FE000E1F78162822B8093DD381092C638089534
:100FF000CF93DF93CDB7DEB7E097CDBFDEBF88EDEF
:1010000090E084BF9093610083E0809301069FE0AD
:101010009093080691E29093000690EA909302065E
:101020009AE090930B0691E09093030A2EEF2093A1
:10103000260A2093270A2BE02093000A2FE037E2AC
:1010400020939C0A30939D0A9093950A1092910ADE
:101050008093900A7894789410E061E0812F58DBB7
:101060001F5F1B30D1F762E083E052DB40E052ECBF
:1010700061E070E08CE298E3DDD98EE59FE9E3D989
:101080008CE29FE9E0D98091C638811117C0109297
:10109000C7381092C8381092C9381092CA381092C6
:1010A000CB381092CC381092CD381092CE381092A6
:1010B000CF381092D03881E08093C6388091E30514
:1010C0008C7F9091C538892B8093E30561E088E09F
:1010D0001FDB61E08AE01CDB8091C10884608093A3
:1010E000C1088091C00881628093C0089091DD386A
:1010F0008091DE389093C0088093C108AE014F5FA5
:101100005F4F61E080EDE3DA8CE298E388D8892BC9
:10111000A9F084E69FE9FFD94AE068E570E080E045
:1011200090E09DD98EE69FE9F6D9698170E090E064
:1011300080E04AE094D98CE29FE985D9898188359D
:1011400031F068E873E180E090E04AD9FACF80E0BE
:101150009EDA84E70E94A7008FE20E94A70081E048
:1011600096DA80E094DA85E70E94A70088E40E947E
:10117000A70081E08CDA64E170E080E090E030D993
:1011800088E79FE960D98CE29FE95DD98E010F5F06
:101190001F4F88E8C82ED12CE12CF12CB12CA12CAA
:1011A0009C2CA114B10429F083E0A816B10409F025
:1011B00017C185E89FE9AFD940E1C701B6014FD912
:1011C0008CE69FE9A8D940E1C701B60148D98CE275
:1011D0009FE939D980E05BDA892D0E94A70080E081
:1011E0000E94A700882E80E00E94A700982E81E030
:1011F0004EDAC401B0E0A0E0F80180839183A283BD
:10120000B383608171818281938197FF0FC164D91B
:101210008CE29FE918D9FFEFAF1ABF0A0C5F1F4F8E
:1012200082E0C80ED11CE11CF11CECE0AE16B1044A
:1012300009F0B6CFC980DA80ED80FE8009851A8575
:10124000AD85BE85E989FA896D897E89498D5A8D7A
:101250002D8D3E8D89A19AA1ADA0BEA089A49AA48E
:101260006DA47EA4C0921438D0921538E09216383E
:10127000F09217380093183810931938A0931A3841
:10128000B0931B38E0931C38F0931D3860931E38E0
:1012900070931F3840932038509321382093223880
:1012A000309323388093243890932538A0922638A1
:1012B000B0922738809228389092293860922A3844
:1012C00070922B3801DB6093003870930138809363
:1012D0000238909303388CE298E30E940F01892B27
:1012E00061F085E99FE917D9609100387091013864
:1012F00080910238909103380FD98FB7F89480907D
:10130000043890900538A0900638B09007388FBF09
:101310009401A50160E070E080E090E0A0900C38BE
:10132000B0900D38C0900E38D0900F38E090103843
:10133000F09011380091123810911338A1D5283E41
:101340003340410551056105710581059105A9F2FB
:10135000A0F28FB7F89400910438109105382091CD
:101360000638309107388FBF00930C3810930D3832
:1013700020930E3830930F38109210381092113895
:1013800010921238109213389FDA6B017C01209171
:1013900008383091093840910A3850910B3837D2CB
:1013A000181644F4C0920838D0920938E0920A38EE
:1013B000F0920B388CE298E30E940F01892B09F41C
:1013C0009CCF8091080487FD98CF80E090E031D0D9
:1013D0006B017C0185EA9FE99ED8C701B6018CCFDD
:1013E00085E89FE998D840E1C701B60138D88CE676
:1013F0009FE991D840E1C701B60131D88CE29FE95D
:1014000022D880E044D98C2D0E94A70080E00E9461
:10141000A700882E80E00E94A700982E81E037D98F
:10142000C401092E000CAA0BBB0BE6CE4AE017D86C
:10143000EFCE09D06081718182819381089503D0BC
:10144000808199270895FC01E050FC4E08952F9269
:101450003F924F925F926F927F928F929F92AF9244
:10146000BF92CF92DF92EF92FF920F931F93CF9391
:10147000DF93CDB7DEB7CA1BDB0BCDBFDEBF099450
:101480002A88398848885F846E847D848C849B8414
:10149000AA84B984C884DF80EE80FD800C811B8122
:1014A000AA81B981CE0FD11DCDBFDEBFED01089558
:1014B0005058BB27AA270ED070C161D130F066D139
:1014C00020F031F49F3F11F41EF456C10EF4E09564
:1014D000E7FB4CC1E92F72D180F3BA17620773079B
:1014E0008407950718F071F49EF58AC10EF4E09513
:1014F0000B2EBA2FA02D0B01B90190010C01CA01CE
:10150000A0011124FF27591B99F0593F50F4503E78
:1015100068F11A16F040A22F232F342F4427585F6A
:10152000F3CF469537952795A795F0405395C9F782
:101530007EF41F16BA0B620B730B840BBAF091503A
:10154000A1F0FF0FBB1F661F771F881FC2F70EC0D9
:10155000BA0F621F731F841F48F4879577956795AC
:10156000B795F7959E3F08F0B3CF9395880F08F095
:101570009927EE0F979587950895D4D008F481E0C8
:1015800008950CD00AC102D140F0F9D030F021F416
:101590005F3F19F0EBC0511134C1EEC00FD198F389
:1015A0009923C9F35523B1F3951B550BBB27AA27E4
:1015B00062177307840738F09F5F5F4F220F331F56
:1015C000441FAA1FA9F333D00E2E3AF0E0E830D022
:1015D00091505040E695001CCAF729D0FE2F27D025
:1015E000660F771F881FBB1F261737074807AB07F3
:1015F000B0E809F0BB0B802DBF01FF2793585F4F68
:101600002AF09E3F510568F0B1C0FBC05F3FECF38C
:10161000983EDCF3869577956795B795F7959F5F2C
:10162000C9F7880F911D9695879597F90895E1E080
:10163000660F771F881FBB1F621773078407BA07DF
:1016400020F0621B730B840BBA0BEE1F88F7E0953A
:101650000895BCD088F09F5790F0B92F9927B751C3
:10166000A0F0D1F0660F771F881F991F1AF0BA9566
:10167000C9F712C0B13081F0C3D0B1E00895C0C045
:10168000672F782F8827B85F39F0B93FCCF386955C
:1016900077956795B395D9F73EF4909580957095B9
:1016A00061957F4F8F4F9F4F0895E89409C097FB36
:1016B0003EF490958095709561957F4F8F4F9F4F29
:1016C0009923A9F0F92F96E9BB279395F69587956D
:1016D00077956795B795F111F8CFFAF4BB0F11F430
:1016E00060FF1BC06F5F7F4F8F4F9F4F16C08823D7
:1016F00011F096E911C0772321F09EE8872F762F0D
:1017000005C0662371F096E8862F70E060E02AF04D
:101710009A95660F771F881FDAF7880F9695879539
:1017200097F90895990F0008550FAA0BE0E8FEEF0E
:1017300016161706E807F907C0F012161306E40795
:10174000F50798F0621B730B840B950B39F40A268E
:1017500061F0232B242B252B21F408950A2609F46C
:10176000A140A6958FEF811D811D089597F99F6770
:1017700080E870E060E008959FEF80EC0895002419
:101780000A941616170618060906089500240A94E6
:1017900012161306140605060895092E0394000C6C
:1017A00011F4882352F0BB0F40F4BF2B11F460FFFB
:1017B00004C06F5F7F4F8F4F9F4F089557FD905824
:1017C000440F551F59F05F3F71F04795880F97FB05
:1017D000991F61F09F3F79F08795089512161306BF
:1017E0001406551FF2CF4695F1DF08C016161706EE
:1017F0001806991FF1CF8695710561050894089523
:10180000E894BB2766277727CB0197F908958ADFED
:1018100008F48FEF08950BD0C0CFB1DF28F0B6DF0A
:1018200018F0952309F0A2CFA7CF1124EACFC6DF85
:10183000A0F3959FD1F3950F50E0551F629FF001E3
:10184000729FBB27F00DB11D639FAA27F00DB11D3C
:10185000AA1F649F6627B00DA11D661F829F2227C5
:10186000B00DA11D621F739FB00DA11D621F839F4C
:10187000A00D611D221F749F3327A00D611D231F22
:10188000849F600D211D822F762F6A2F11249F5770
:1018900050408AF0E1F088234AF0EE0FFF1FBB1F93
:1018A000661F771F881F91505040A9F79E3F510532
:1018B00070F05CCFA6CF5F3FECF3983EDCF38695EB
:1018C00077956795B795F795E7959F5FC1F7FE2BDD
:1018D000880F911D9695879597F90895FA01EE0F57
:1018E000FF1F30962105310599F16115710561F4ED
:1018F0008038BFE39B0749F168949038810561F017
:101900008038BFEF9B0741F0992342F5FF3FE10587
:101910003105210511F1E8940894E795D901AA232E
:1019200029F4AB2FBE2FF85FD0F310C0FF5F70F427
:10193000A695E0F7F73950F019F0FF3A38F49F77A1
:101940009F930CD00F9007FC905808953EF014CF51
:1019500060E070E080E89FE308954FE79F775F9332
:101960004F933F932F93A2D02F913F914F915F912F
:1019700052DF09C0D7DE880B990B089519F40EF0D9
:10198000F5CE3ECFF9CE22DFC8F39638C0F707F880
:101990000F92E8942BE33AEA48EB5FE74ADF0F92B5
:1019A0000F920F924DB75EB70F92C0D0E8E7F0E00C
:1019B00016D04F915F91EF91FF91E595EE1FFF1FBC
:1019C00049F0FE57E0684427EE0F441FFA95E1F70F
:1019D0004195550B32D00F9007FE26C00895DF9336
:1019E000CF931F930F93FF92EF92DF927B018C01B5
:1019F000689405C0DA2EEF011ADFFE01E894A59184
:101A00002591359145915591AEF3EF0163DDFE01CE
:101A10009701A801DA9479F7DF90EF90FF900F918A
:101A20001F91CF91DF9108959B01AC0160E070E0C0
:101A300080E89FE3A6CD9ACEACC0C8DEE8F3992338
:101A4000D9F3940F511DBBF39150504094F059F0CD
:101A5000882332F0660F771F881F91505040C1F7DE
:101A60009E3F510544F7880F911D9695879597F9EC
:101A700008955F3FACF0983E9CF0BB278695779524
:101A80006795B79508F4B1609395C1F7BB0F58F708
:101A900011F460FFE8CF6F5F7F4F8F4F9F4FE3CF11
:101AA000B0CE0EF076C068CE689460CE8FDEC8F3FC
:101AB0009923D1F3C6F3DF93CF931F930F93FF9234
:101AC000C92FDD2788232AF02197660F771F881FEB
:101AD000DAF720E030E040E85FEB9FE3883920F060
:101AE000803E30F021968F77E4DCE0EAF0E003C03E
:101AF000E0DCEDECF0E073DF8B01BE01EC01FB2ECE
:101B00006F5771097595771F880B990BD0DD28E108
:101B100032E741E35FE38BDEAF2D9801AE01FF902A
:101B20000F911F91CF91DF91D5DC37CEFA01DC0107
:101B3000AA0FBB1F9B01AC01BF5728F422273327F4
:101B4000442750781FC0B75188F4AB2F0024469526
:101B500037952795011CA395D2F3002069F0220F39
:101B6000331F441FB395DAF30DD0A2CC6130710559
:101B7000A0E88A07B94630F49B01AC0166277727B5
:101B800088279078309621F02083318342835383D5
:101B900008959F3F31F0915020F487957795679590
:101BA000B795880F911D9695879597F90895DB0154
:101BB0008F939F932DD0BF91AF91A29F800D911DC8
:101BC000A39F900DB29F900D11240895A1E21A2EAB
:101BD000AA1BBB1BFD010DC0AA1FBB1FEE1FFF1FD1
:101BE000A217B307E407F50720F0A21BB30BE40B21
:101BF000F50B661F771F881F991F1A9469F7609568
:101C00007095809590959B01AC01BD01CF01089521
:101C100052D1A59F900DB49F900DA49F800D911D52
:101C200011240895B7FFF4CFF3DF821B930B0895BF
:101C3000DF93CF931F930F939A9DF02D219FF00D6B
:101C40008B9DF00D8A9DE02DF10D039FF00D029FFD
:101C5000E00DF11D4E9DE00DF11D5E9DF00D4F9DBF
:101C6000F00D7F936F93BF92AF925F934F93D50127
:101C700022D18B01AC01D7011ED1EB01E80FF91F76
:101C8000D6011ED02F913F91D60115D1C60FD71F77
:101C9000E81FF91FAF91BF9113D02F913F910BD146
:101CA000C60FD71FE81FF91FD60105D1E60FF71F92
:101CB0009801BE01CF010F911F91CF91DF9108953F
:101CC000FAD0460F571FC81FD91F08F43196089540
:101CD000689401C0E894F92FF12B0AF027C0A0E026
:101CE000B0E0E4E7FEE0B9CB092E05941AF479D010
:101CF000112392F4F0E80F26FFEFE094F0940095A2
:101D00001095B094C094D094A194BF0ACF0ADF0A72
:101D1000EF0AFF0A0F0B1F0B13D007FC62D0CDB7E1
:101D2000DEB7ECE0B3CB689401C0E8948F929F9249
:101D3000CF93DF9305D0DF91CF919F908F9008953F
:101D400088249924F401E401B0E49F93AA279A150A
:101D50008B049C04ED05FE05CF05D007A10798F480
:101D6000AD2FDC2FCF2FFE2FE92D982C892E982F09
:101D7000872F762F652F542F432F322F2227B850CD
:101D800031F7BF9127C01B2EBF91BB27220F331FF6
:101D9000441F551F661F771F881F991F881C991C99
:101DA000EE1FFF1FCC1FDD1FAA1FBB1F8A149B0441
:101DB000EC05FD05CE05DF05A007B10748F08A1840
:101DC0009B08EC09FD09CE09DF09A00BB10B2160CE
:101DD0001A94E1F62EF49401AF01BE01CD01000C7E
:101DE00008956095709580959095309540955095A3
:101DF00021953F4F4F4F5F4F6F4F7F4F8F4F9F4FFB
:101E00000895002E083090F0982F872F762F652F99
:101E1000542F432F322F22270850F4CF220F331F85
:101E2000441F551F661F771F881F991F0A95B2F719
:101E3000002D089597FD1094002E083098F008505A
:101E4000232F342F452F562F672F782F892F912D31
:101E5000F4CF1594979587957795679557954795FE
:101E6000379527950A95AAF71124002D08952A0D74
:101E70003B1D4C1D5D1D6E1D7F1D801F911F089514
:101E80002A193B094C095D096E097F09800B910BEA
:101E900008950024A7FD00942A1730054005500539
:101EA00060057005800590050895EE0FFF1F0590F1
:101EB000F491E02D0994A29FB001B39FC001A39FAC
:101EC000700D811D1124911DB29F700D811D112473
:081ED000911D0895F894FFCF65
:101ED8000504060708090A000405060703020100AD
:101EE80001020300000000000101010100000000E0
:101EF80010204080080402010204080100000000CC
:101F08004F01B100DE009B010F01ED0001011A0233
:101F1800AE031B01AF016E616E00696E66006F76DD
:101F280066002E000D0A0054656D70657261747547
:101F38007265205B2A435D3A0900507265737375B8
:101F48007265205B50615D3A0900486967687420D2
:101F58005B6D5D3A090053544152540043686970FF
:101F68002049443A090009526573756C743A0900AE
:101F780043414C4942524154494F4E3A0046726FD0
:101F88006D2072656769737465723A0900494E4934
:101F98005449414C2048494748543A09004D617812
:091FA8002048696768743A0900D9
:00000001FF
