:100000007DC00000A3C00000A1C000009FC0000090
:100010009DC000009BC0000099C0000097C0000078
:1000200095C0000093C0000091C000008FC0000088
:100030008DC000008BC0000089C0000087C0000098
:1000400085C000006AC4000063C400006BC40000E7
:100050007DC000007BC0000079C0000077C00000B8
:1000600075C00000C7C4000071C000006FC0000070
:100070006DC000006BC0000007634236B79BD8A775
:100080001A39685618AEBAAB558C1D3CB7CC5763BD
:10009000BD6DEDFD753EF6177231BF000000803F6B
:1000A00008000000BE922449123EABAAAA2ABECD87
:1000B000CCCC4C3E00000080BEABAAAAAA3E0000F9
:1000C0000000BF000000803F0000000000084178F1
:1000D000D3BB4387D1133D190E3CC3BD4282AD2B28
:1000E0003E68EC8276BED98FE1A93E4C80EFFFBE20
:1000F00001C4FF7F3F0000000000220511241FBE45
:10010000CFEFCDBFDFE3DEBF8091400080934000A2
:10011000811105C098ED21E094BF209341008CBB74
:1001200028E3A0E0B8E301C01D92A73DB207E1F7C4
:1001300010E0CEE7D0E004C02197FE010E94380F06
:10014000CD37D107C9F7C7D40C944D0F59CF000054
:100150008093C4088091C30887FFFCCF8091C408B6
:100160000895AF92BF92CF92DF92EF92FF920F93DA
:100170001F93CF93DF936C017B018B01040F151F3D
:10018000EB015E01AE18BF08C017D10759F06991A5
:10019000D601ED91FC910190F081E02DC601099509
:1001A000892B79F7C501DF91CF911F910F91FF90B6
:1001B000EF90DF90CF90BF90AF900895FC015389EE
:1001C0004489252F30E0842F90E0821B930B541735
:1001D00010F0CF96089501970895FC0191898289C6
:1001E000981761F0A289AE0FBF2FB11D55968C9163
:1001F00092899F5F9F73928B90E008958FEF9FEF9E
:100200000895FC0191898289981731F08289E80F5D
:10021000F11D858990E008958FEF9FEF0895FC010F
:1002200091892289892F90E0805C9F4F821B9109E0
:100230008F7399270895CF93DF93EC01E881F981BB
:100240000680F781E02D0995EC85FD858681168273
:100250008581158280E484838A89898B188ADF915D
:10026000CF910895FC010FB607FE04C080911101E3
:100270008823A1F0A485B58514968C91149785FFE9
:100280000DC093898489981739F015968C9115972C
:100290008F7D15968C930895E8944FC308950F931E
:1002A0001F93CF93DF93EC018889982F9160988BEF
:1002B0002B899C8929130AC0EC85FD85948195FFC3
:1002C00005C081FD0DC080E4848312C0062F1B8908
:1002D0001F5F1F738C89811315C0CE01C3DFFACF56
:1002E00085818F77806490E49483EC85FD85858398
:1002F000EC85FD85628381E090E0DF91CF911F91D5
:100300000F910895EB89EC0FFD2FF11DEB5AFF4F74
:1003100000831B8BEC85FD85888981FF09C0858161
:100320008F77806690E49483EC85FD858583E3CFA9
:1003300085818062FBCFCF93DF93EC01888988238E
:1003400059F0EC85FD85858185FD03C0848186FD9E
:1003500003C0CE0187DFF5CFDF91CF91089581E013
:1003600008959FB7F894E0919A0AF0919B0A8091C2
:10037000960A20910038309101384091023850910E
:1003800003389FBF80FF08C0CF018827892B21F445
:100390002F5F3F4F4F4F5F4F0F01169407941694F6
:1003A000079416940794F0011694079416940794F2
:1003B000E019F109169407940694102C16941694DB
:1003C000011816941694010C1124E00DF11DA8EEED
:1003D000B3E00E94EB0D6E0F7F1F811D911D0895EC
:1003E000CF92DF92EF92FF92CF93DF936B017C016C
:1003F000B8DFEB01B6DF6C1B7D0B683E7340A0F0ED
:10040000C114D104E104F10439F4DF91CF91FF90DC
:10041000EF90DF90CF90089581E0C81AD108E108ED
:10042000F108C851DC4FE6CFC114D104E104F10456
:1004300009F7EBCFDC01ED91FC910088F189E02D0B
:1004400023E030E0099491E0811116C090932604D6
:100450009091200490FD0AC09FB7F89481110FC0BD
:1004600080913004877F809330049FBF8091010A80
:100470008E7F8093010A089590932504E9CF80919F
:1004800030048860F0CF8C30F0F490E0FC01E2544E
:10049000F14620812F3FB9F0FC01EE54F146E08196
:1004A000E295EE0FF0E0F460613071F421838A553B
:1004B0009146DC018C918061E80FF11D80816130F3
:1004C00031F088608083089522832583F0CF877F71
:1004D000F9CF8F929F92AF92BF92EF92FF920F93BC
:1004E0001F93CF93DF938C014A015B01E901DC018B
:1004F00050968C91509780FF07C0ED91FC91028837
:10050000F389E02DC8010995C11101C0C3E0EC2EAB
:10051000E894E2F8FD2ECD2FD095D07CB1ED8B166E
:10052000B2E19B06B3E1AB06B10428F0D260B69409
:10053000A7949794879460E074EB84EC94E0A50111
:1005400094010E94C90D2034310510F420E430E0FC
:10055000F2FCD8608C2F8B72D7FD8068CD2FC87CC1
:1005600083FF07C0C83C29F4F80190899260908B02
:10057000C8ED80FDC160FFB6F894D8011C96ED91DE
:10058000FC911682E7822087318785FF4DC0CF77A7
:1005900091E094879FEF95878F7D8583D683F801BF
:1005A000478586859091E2052CEF811123EF9223F8
:1005B000242F30E050E0811152E0B90101C0660FF4
:1005C0005A95EAF7962B9093E205433009F1820F92
:1005D000932F911D880F991F880F991F8C01025628
:1005E0001146C6FF23C0C3FD21C061E0D8018C9134
:1005F0004ADFC7FF07C0C4FD05C062E0D8011196FD
:100600008C9141DFC0FF04C061E0F80183813BDFD2
:10061000FFBEDF91CF911F910F91FF90EF90BF90A0
:10062000AF909F908F9008951486B6CF2C2F207591
:1006300001F38256914662E0FC018081D9CFFC0132
:1006400001900020E9F73197AF01481B590BBC011D
:1006500084E298E386CD8F929F92AF92BF920F93E0
:100660001F93CF93DF93CDB7DEB7A197CDBFDEBF8A
:1006700019A2423008F44AE08E010F5D1F4F842E0C
:10068000912CB12CA12CA50194010E94C90DE62F3B
:10069000B901CA01EA30D4F4E05DD801EE938D01CE
:1006A000232B242B252B79F790E080E0109711F075
:1006B000CD01C5DFA196CDBFDEBFDF91CF911F91E8
:1006C0000F91BF90AF909F908F900895E95CE5CF18
:1006D000CF93DF93462F682F70E090E080E0BBDF80
:1006E000EC0184EE9EE9ABDF8C0F9D1FDF91CF9173
:1006F0000895A5CFEF92FF920F931F93CF93DF93AF
:10070000C82F062F7A0187EE9EE9F3DF6C2F70E089
:1007100090E080E040E19FDF89E49FE9EADF60E16B
:1007200070E08C2FD5DF80E08EDE8C2F10DDE701AE
:1007300010E0CE018E199F098017910724F480E004
:1007400006DD8993F6CF81E0DF91CF911F910F9164
:10075000FF90EF9078CECF92DF92EF92FF92CF93FF
:10076000DF9397FF19C06B017C016DE284E298E38F
:1007700096DDEC0166277727CB016C197D098E0980
:100780009F094AE068DF8C0F9D1FDF91CF91FF909A
:10079000EF90DF90CF9008954AE0DF91CF91FF90E6
:1007A000EF90DF90CF9057CF4F925F926F927F92F2
:1007B0008F929F92AF92BF92CF92DF92EF92FF9271
:1007C0006B017C01AC019B010E949D0C8823B1F060
:1007D00087EF9EE934DF7C0184EE9EE930DF8E0DE9
:1007E0009F1DFF90EF90DF90CF90BF90AF909F90B4
:1007F0008F907F906F905F904F90089546015701C2
:10080000E894B7F82FEF3FEF4FE75FE7C501B4017A
:100810000E949D0C81110CC02FEF3FEF4FE75FE767
:10082000C501B4018DD618161CF48BEF9EE9D2CF0A
:100830002FEF3FEF4FE75FE4C701B601CBD71816A4
:100840001CF48FEF9EE9C6CF2FEF3FEF4FE75FEC31
:10085000C701B60175D687FDF4CF20E030E0A901CD
:10086000C701B6016DD6B12CA12C87FF09C06DE27E
:1008700084E298E314DD5C01F7FAF094F7F8F09461
:100880002AE037ED43EA5BE3C701B601F5D52B015A
:100890003C01C2D66B017C01EBD69B01AC01C301CC
:1008A000B201E9D52B013C014AE0C701B601D3DE14
:1008B0007C01EA0CFB1C83E09FE9C1DEE80EF91E17
:1008C00020E030E040E251E4C301B20187D72B01C0
:1008D0003C01A2D64B01B12CA12C4AE0C501B401C8
:1008E000BADEE80EF91EC501B401C2D69B01AC0107
:1008F000C301B201C0D520E030E040E251E46ED740
:100900008BD690E080E04AE0A6DEE80EF91E64CFC8
:10091000EF93FF93E4E2F8E308C0EF93FF93E4E280
:10092000F8E331C0EF93E0E052C02F932FB72F933D
:100930008F939F93AF93BF936894CF93DF9320E0FF
:10094000C485D8E09489DF01A90FB21FAB5ABF4F0D
:100950008C9120E42C838A839F5F9F738D812389F0
:10096000291302C08F7D8D83948BDF91CF910EF080
:1009700095CCBF91AF919F918F912F912FBF2F91C8
:10098000FF91EF9118952F932FB72F938F939F93EC
:10099000CF93DF93C485D8E08981988181FD0DC014
:1009A000C18981E08C0F8F732289281731F0CE0F17
:1009B000DF2F20E0D21F9D8B818BDF91CF919F9104
:1009C0008F912F912FBF2F91FF91EF911895FF934A
:1009D0008F938FB78F93F8E08081848187FFFCCF5E
:1009E00085818F7B806885838F918FBF8F91FF91E9
:1009F000EF9118951F920F920FB60F9211248F93BB
:100A00009F93AF93BF938091003890910138A0914C
:100A10000238B09103380196A11DB11D80930038B2
:100A200090930138A0930238B093033881E080930B
:100A3000960ABF91AF919F918F910F900FBE0F902B
:100A40001F901895109226381092273888EE93E060
:100A5000A0E0B0E08093283890932938A0932A38FA
:100A6000B0932B388EEC9EE98093243890932538F0
:100A700080E098E08093303890933138109232388B
:100A80001092333840E856E968E970E080E08F5F03
:100A9000863011F487E00BC076956795579547959A
:100AA000413099E059079DE36907710580F794E0AB
:100AB0009093D638982F9095292F217030E094E0AC
:100AC000220F331F9A95E1F78162822B8093D538EC
:100AD0001092BE380895CF93DF93CDB7DEB7C755D8
:100AE000D109CDBFDEBF88ED90E084BF9093610057
:100AF00083E0809301069FE09093080691E2909333
:100B0000000690EA909302069AE090930B0691E01B
:100B10009093030A2EEF2093260A2093270A2BE0B6
:100B20002093000A2FE037E220939C0A30939D0A1D
:100B30009093950A1092910A8093900A78947894F1
:100B400010E061E0812F9FDC1F5F1B30D1F762E076
:100B500083E099DC40E052EC61E070E084E298E3ED
:100B600069DC85E09FE96BDD84EE9EE968DD8091BC
:100B7000BE38811117C01092BF381092C038109241
:100B8000C1381092C2381092C3381092C4381092F3
:100B9000C5381092C6381092C7381092C83881E014
:100BA0008093BE388091E3058C7F9091BD38892B6E
:100BB0008093E30561E088E066DC61E08AE063DC65
:100BC0008091C10884608093C1088091C0088162CF
:100BD0008093C0089091D5388091D6389093C00802
:100BE0008093C10880E02FDC84E7B1DA8FE2AFDACE
:100BF00081E029DC80E027DC85E7A9DA88E4A7DA50
:100C000081E021DC64E670E080E090E0E9DB8BE0ED
:100C10009FE915DD84EE9EE912DD8E010F5F1F4F07
:100C20005801A8E8CA2ED12CE12CF12C10E000E0EC
:100C30009C2C87EE9EE90115110521F0033011056A
:100C400009F0C7C356DD40E1C701B60104DD89E400
:100C50009FE94FDD60E170E0892D3ADD80E0F3DB54
:100C6000892D75DA80E073DA882E80E070DA982EAC
:100C700081E0E9DBC401B0E0A0E0F501808391836D
:100C8000A283B38361917191819191915F0163DD41
:100C900084EE9EE9D4DC0F5F1F4FF2E0CF0ED11C33
:100CA000E11CF11C0C30110509F0C2CFC980DA80BB
:100CB000ED80FE8009851A85AD85BE85E989FA89B2
:100CC0006D897E89498D5A8D2D8D3E8D89A19AA180
:100CD000ADA0BEA089A49AA46DA47EA4C09204383D
:100CE000D0920538E0920638F09207380093083821
:100CF00010930938A0930A38B0930B38E0930C385E
:100D0000F0930D3860930E3870930F38409310387D
:100D1000509311382093123830931338809314383D
:100D200090931538A0921638B092173880921838E0
:100D30009092193860921A3870921B388FB7F894D5
:100D40008090003890900138A0900238B09003381D
:100D50008FBF9401A50160E070E080E090E0A0907A
:100D60001C38B0901D38C0901E38D0901F38E090CD
:100D70002038F090213800912238109123380E94B9
:100D8000230F28383341410551056105710581055F
:100D9000910509F008F4F2C2AE014F5F5F4F66E0C3
:100DA00087EFA8DC88E19FE9A4DC2C814D818E814E
:100DB00090E0B0E0A22F50E0542F4427052E000C05
:100DC000660B770B842B952BA62BB72B4091043801
:100DD0005091053870E060E0C92EDA2EEB2EFF242A
:100DE000E7FCFA94C41AD50AE60AF70A27E0B59593
:100DF000A795979587952A95D1F7440F551F661F9C
:100E0000771F4C015D01841A950AA60AB70AA5014D
:100E10009401A0910638B0910738E7D64B015C01E8
:100E20004BE0B594A794979487944A95D1F7A7017E
:100E30009601C701B6019ED69B01AC016CE05595A9
:100E40004795379527956A95D1F7A0910838B091C5
:100E50000938CBD66B017C017EE0F594E794D794FA
:100E6000C7947A95D1F7C80CD91CEA1CFB1CA5E0E5
:100E7000B0E0A7019601AFD660587F4F8F4F9F4FCC
:100E8000672F782F892F992787FD9A95F3D320E034
:100E900030E048EC52E458D387DC86E29FE929DC55
:100EA000C701B60158DC84EE9EE9C9DB909010388A
:100EB00063969FAE63978090113821968FAE2197ED
:100EC0009090123866969FAE669780901338299658
:100ED0008FAE29979090143867969FAE6797809051
:100EE000153889AE9090163865969FAE65978090BC
:100EF000173828968FAE28979090183868969FAE2E
:100F00006897809019382A968FAE2A9790901A3851
:100F100064969FAE649780901B3822968FAE22977E
:100F200099809CAE8A8061968FAE61979B80629615
:100F30009FAE629746015701BB0C8808982C54015C
:100F40009601A701682D782D882D982D345F41409A
:100F50005109610971098109910929AB3AAB4BAB80
:100F60005CAB6DAB7EAB8FAB98AF59016A017B0177
:100F70008C0141D62AAF3BAF2B964FAF2B972C96C7
:100F80005FAF2C972D966FAF2D972E967FAF2E9734
:100F90002F968FAF2F9760969FAF609730910D3847
:100FA00020910C38932F990F990B492F592F692FA6
:100FB000792F892F20D60CE007D719012A013B0190
:100FC0004C0130910F3820910E38932F990F990BC7
:100FD000AAACBBAC2B96CFAC2B972C96DFAC2C9746
:100FE0002D96EFAC2D972E96FFAC2E972F960FAD2A
:100FF0002F9760961FAD6097492F592F692F792F32
:10100000892FF9D508E0F9D65101620173018401F5
:1010100011D770588F4F9F4F20900A3830900B385F
:101020005101C12CD12CE12CF12C00E010E0E3D5D2
:1010300001E2E3D623962FAF239724963FAF249760
:1010400025964FAF259726965FAF269727966FAFC9
:101050002797272E382E492EA0E0C12CD12C7601BF
:10106000FBD609F449C162968FAC6297482D50E0D7
:1010700070E060E09CAC692961968FAC6197882D27
:1010800090E0982F8827092E000CAA0BBB0B4C016F
:101090005D01842A952AA62AB72A8CAE9DAEAEAEF3
:1010A000BFAE67962FAD679799AD990F990BAAAC14
:1010B000BBAC2B96CFAC2B972C96DFAC2C972D96F8
:1010C000EFAC2D972E96FFAC2E972F960FAD2F9746
:1010D00060961FAD609739AD492F592F692F792F31
:1010E000892F89D529AF3AAF4BAF552E3B014C0123
:1010F00066962FAD669729969FAD2997990F990B04
:10110000A9A8BAA8CBA8DCA8EDA8FEA80FA918AD7D
:1011100029963FAD2997492F592F692F792F892F6C
:101120006AD501E151D6A9ACBAACCBACD52C7301D0
:10113000840180D659016A017B01182F592E8CAD8C
:101140009DADAEADBFAD34E0B595A79597958795AC
:101150003A95D1F720E030E040E150E0281B390B10
:101160004A0B5B0BDA01C90139014A01990C660887
:10117000762C43019C01AD01662D762D862D962D92
:101180000FE122D639014A01B62FA72FF82FE92FF8
:1011900063962FAD639721969FAD2197990F990B79
:1011A00021963FAD2197492F592F692F792F892FEC
:1011B00003E20AD6012F152D3DD659016A017B01A4
:1011C0008C019301A4016B2F7A2F8F2F9E2F3BD67A
:1011D000E5E3AE2EFCE0BF2EC12CD12CE12CF12C8E
:1011E00000E010E008D52396AFAC23972496BFAC5F
:1011F00024972596CFAC25972696DFAC2697279681
:10120000EFAC2797F22C032D142D47D529AB3AAB21
:101210004BAB5CAB6DAB7EAB8FAB98AF0DE0EDD560
:10122000322E292E64962FAD649722969FAD229779
:10123000990F990BA32CB32EC42ED52EE62EF72E84
:10124000082F122D22963FAD2297492F592F692F33
:10125000792F892FD0D4CFD409E1CFD5A9A8BAA8A6
:10126000CBA8DCA8EDA8FEA80FA918ADE3D51901FD
:101270002A013B014C0168962FAD68972A969FADD5
:101280002A97990F990B2A963FAD2A97492F592FE4
:10129000692F792F892FAFD403E1AFD559016A01A6
:1012A0007B018C019101A201B301C401C3D508E007
:1012B000A4D559016A017B01E82F192F65962FAD3E
:1012C000659728969FAD2897990F990B28963FAD63
:1012D0002897492F592F692F792F892F04E074D52A
:1012E0000E2FA8D5B901CA01C3D120E030E040E8F3
:1012F0005BE374D26B017C018EE29FE9FAD9C701EE
:10130000B60152DA89E39FE9F4D920E030E048ECF5
:1013100052E4C701B60118D120E030E04FE754E4B1
:1013200013D121E03EED42E45EE3BBD29B01AC0170
:1013300060E070E080E89FE39ED020E03AE24DE27A
:1013400057E44CD231DA8FB7F894009100381091FD
:10135000013820910238309103388FBF00931C3838
:1013600010931D3820931E3830931F381092203868
:1013700010922138109222381092233884E298E398
:101380000E940F01892BF9F08091080487FD1BC092
:101390001982AE014F5F5F4F61E080EDABD981E410
:1013A0009FE9A7D968E570E080E090E0D4D98BE4AC
:1013B0009FE99FD96AE070E089818AD964EF71E082
:1013C00080E090E00DD864E670E080E090E008D81E
:1013D000B5CC8FD940E1C701B6013DD989E49FE979
:1013E00088D960E170E08C2D73D980E02CD88C2DE9
:1013F0000E94A70080E00E94A700882E80E00E9443
:10140000A700982E81E01FD8C401092E000CAA0B5A
:10141000BB0B33CC2F923F924F925F926F927F9291
:101420008F929F92AF92BF92CF92DF92EF92FF92F4
:101430000F931F93CF93DF93CDB7DEB7CA1BDB0BA0
:10144000CDBFDEBF09942A88398848885F846E84BE
:101450007D848C849B84AA84B984C884DF80EE80D8
:10146000FD800C811B81AA81B981CE0FD11DCDBF1A
:10147000DEBFED0108955058BB27AA270ED070C1DA
:1014800061D130F066D120F031F49F3F11F41EF4A9
:1014900056C10EF4E095E7FB4CC1E92F72D180F301
:1014A000BA17620773078407950718F071F49EF561
:1014B0008AC10EF4E0950B2EBA2FA02D0B01B901B5
:1014C00090010C01CA01A0011124FF27591B99F0BA
:1014D000593F50F4503E68F11A16F040A22F232FC6
:1014E000342F4427585FF3CF469537952795A79516
:1014F000F0405395C9F77EF41F16BA0B620B730BBD
:10150000840BBAF09150A1F0FF0FBB1F661F771F2D
:10151000881FC2F70EC0BA0F621F731F841F48F4E2
:10152000879577956795B795F7959E3F08F0B3CF68
:101530009395880F08F09927EE0F97958795089552
:10154000D4D008F481E008950CD00AC102D140F053
:10155000F9D030F021F45F3F19F0EBC0511134C1E4
:10156000EEC00FD198F39923C9F35523B1F3951B1E
:10157000550BBB27AA2762177307840738F09F5FB4
:101580005F4F220F331F441FAA1FA9F333D00E2E23
:101590003AF0E0E830D091505040E695001CCAF790
:1015A00029D0FE2F27D0660F771F881FBB1F261755
:1015B00037074807AB07B0E809F0BB0B802DBF0128
:1015C000FF2793585F4F2AF09E3F510568F0B1C046
:1015D000FBC05F3FECF3983EDCF38695779567950B
:1015E000B795F7959F5FC9F7880F911D96958795D9
:1015F00097F90895E1E0660F771F881FBB1F6217F8
:1016000073078407BA0720F0621B730B840BBA0BB5
:10161000EE1F88F7E0950895BCD088F09F5790F0B2
:10162000B92F9927B751A0F0D1F0660F771F881F07
:10163000991F1AF0BA95C9F712C0B13081F0C3D022
:10164000B1E00895C0C0672F782F8827B85F39F0C0
:10165000B93FCCF3869577956795B395D9F73EF466
:1016600090958095709561957F4F8F4F9F4F08950E
:10167000E89409C097FB3EF490958095709561952C
:101680007F4F8F4F9F4F9923A9F0F92F96E9BB27E2
:101690009395F695879577956795B795F111F8CF5E
:1016A000FAF4BB0F11F460FF1BC06F5F7F4F8F4FC9
:1016B0009F4F16C0882311F096E911C0772321F0BF
:1016C0009EE8872F762F05C0662371F096E8862F57
:1016D00070E060E02AF09A95660F771F881FDAF7AE
:1016E000880F9695879597F90895990F0008550FDB
:1016F000AA0BE0E8FEEF16161706E807F907C0F098
:1017000012161306E407F50798F0621B730B840B9F
:10171000950B39F40A2661F0232B242B252B21F479
:1017200008950A2609F4A140A6958FEF811D811D19
:10173000089597F99F6780E870E060E008959FEF53
:1017400080EC089500240A94161617061806090658
:10175000089500240A941216130614060506089527
:10176000092E0394000C11F4882352F0BB0F40F4AF
:10177000BF2B11F460FF04C06F5F7F4F8F4F9F4FEF
:10178000089557FD9058440F551F59F05F3F71F071
:101790004795880F97FB991F61F09F3F79F08795D8
:1017A0000895121613061406551FF2CF4695F1DF61
:1017B00008C0161617061806991FF1CF86957105F1
:1017C000610508940895E894BB2766277727CB0125
:1017D00097F908958ADF08F48FEF08950BD0C0CFF2
:1017E000B1DF28F0B6DF18F0952309F0A2CFA7CF1C
:1017F0001124EACFC6DFA0F3959FD1F3950F50E0F7
:10180000551F629FF001729FBB27F00DB11D639FB2
:10181000AA27F00DB11DAA1F649F6627B00DA11D58
:10182000661F829F2227B00DA11D621F739FB00DFE
:10183000A11D621F839FA00D611D221F749F33276E
:10184000A00D611D231F849F600D211D822F762F07
:101850006A2F11249F5750408AF0E1F088234AF004
:10186000EE0FFF1FBB1F661F771F881F9150504050
:10187000A9F79E3F510570F05CCFA6CF5F3FECF318
:10188000983EDCF3869577956795B795F795E7953C
:101890009F5FC1F7FE2B880F911D9695879597F94D
:1018A0000895FA01EE0FFF1F30962105310599F1D9
:1018B0006115710561F48038BFE39B0749F16894B5
:1018C0009038810561F08038BFEF9B0741F0992384
:1018D00042F5FF3FE1053105210511F1E894089437
:1018E000E795D901AA2329F4AB2FBE2FF85FD0F3D7
:1018F00010C0FF5F70F4A695E0F7F73950F019F0CB
:10190000FF3A38F49F779F930CD00F9007FC9058C4
:1019100008953EF014CF60E070E080E89FE3089502
:101920004FE79F775F934F933F932F93A2D02F91D1
:101930003F914F915F9152DF09C0D7DE880B990B21
:10194000089519F40EF0F5CE3ECFF9CE22DFC8F39C
:101950009638C0F707F80F92E8942BE33AEA48EB81
:101960005FE74ADF0F920F920F924DB75EB70F926B
:10197000C0D0E8E7F0E016D04F915F91EF91FF9172
:10198000E595EE1FFF1F49F0FE57E0684427EE0F74
:10199000441FFA95E1F74195550B32D00F9007FEA1
:1019A00026C00895DF93CF931F930F93FF92EF927A
:1019B000DF927B018C01689405C0DA2EEF011ADFFB
:1019C000FE01E894A5912591359145915591AEF38D
:1019D000EF0163DDFE019701A801DA9479F7DF904A
:1019E000EF90FF900F911F91CF91DF9108959B0190
:1019F000AC0160E070E080E89FE3A6CD9ACEACC079
:101A0000C8DEE8F39923D9F3940F511DBBF391502D
:101A1000504094F059F0882332F0660F771F881FEA
:101A200091505040C1F79E3F510544F7880F911DDA
:101A30009695879597F908955F3FACF0983E9CF096
:101A4000BB27869577956795B79508F4B160939510
:101A5000C1F7BB0F58F711F460FFE8CF6F5F7F4FFE
:101A60008F4F9F4FE3CFB0CE0EF076C068CE689414
:101A700060CE8FDEC8F39923D1F3C6F3DF93CF9303
:101A80001F930F93FF92C92FDD2788232AF02197F8
:101A9000660F771F881FDAF720E030E040E85FEB41
:101AA0009FE3883920F0803E30F021968F77E4DC88
:101AB000E0EAF0E003C0E0DCEDECF0E073DF8B0186
:101AC000BE01EC01FB2E6F5771097595771F880BCE
:101AD000990BD0DD28E132E741E35FE38BDEAF2DE8
:101AE0009801AE01FF900F911F91CF91DF91D5DC4E
:101AF00037CEFA01DC01AA0FBB1F9B01AC01BF5717
:101B000028F422273327442750781FC0B75188F480
:101B1000AB2F0024469537952795011CA395D2F34A
:101B2000002069F0220F331F441FB395DAF30DD064
:101B3000A2CC61307105A0E88A07B94630F49B0158
:101B4000AC016627772788279078309621F020838C
:101B500031834283538308959F3F31F0915020F4A5
:101B6000879577956795B795880F911D9695879579
:101B700097F90895DB018F939F932DD0BF91AF917B
:101B8000A29F800D911DA39F900DB29F900D1124D7
:101B90000895A1E21A2EAA1BBB1BFD010DC0AA1FAE
:101BA000BB1FEE1FFF1FA217B307E407F50720F0C6
:101BB000A21BB30BE40BF50B661F771F881F991F41
:101BC0001A9469F760957095809590959B01AC018A
:101BD000BD01CF01089552D1A59F900DB49F900DE6
:101BE000A49F800D911D11240895B7FFF4CFF3DF5A
:101BF000821B930B0895DF93CF931F930F939A9DAE
:101C0000F02D219FF00D8B9DF00D8A9DE02DF10DA3
:101C1000039FF00D029FE00DF11D4E9DE00DF11DA3
:101C20005E9DF00D4F9DF00D7F936F93BF92AF922D
:101C30005F934F93D50122D18B01AC01D7011ED107
:101C4000EB01E80FF91FD6011ED02F913F91D6016D
:101C500015D1C60FD71FE81FF91FAF91BF9113D041
:101C60002F913F910BD1C60FD71FE81FF91FD60147
:101C700005D1E60FF71F9801BE01CF010F911F910B
:101C8000CF91DF910895FAD0460F571FC81FD91F73
:101C900008F431960895689401C0E894F92FF12B67
:101CA0000AF027C0A0E0B0E0E7E5FEE0B9CB092EDE
:101CB00005941AF479D0112392F4F0E80F26FFEF7F
:101CC000E094F09400951095B094C094D094A194B1
:101CD000BF0ACF0ADF0AEF0AFF0A0F0B1F0B13D050
:101CE00007FC62D0CDB7DEB7ECE0B3CB689401C09F
:101CF000E8948F929F92CF93DF9305D0DF91CF919D
:101D00009F908F90089588249924F401E401B0E411
:101D10009F93AA279A158B049C04ED05FE05CF0519
:101D2000D007A10798F4AD2FDC2FCF2FFE2FE92D80
:101D3000982C892E982F872F762F652F542F432F7D
:101D4000322F2227B85031F7BF9127C01B2EBF91E9
:101D5000BB27220F331F441F551F661F771F881F85
:101D6000991F881C991CEE1FFF1FCC1FDD1FAA1F87
:101D7000BB1F8A149B04EC05FD05CE05DF05A007FB
:101D8000B10748F08A189B08EC09FD09CE09DF0964
:101D9000A00BB10B21601A94E1F62EF49401AF016F
:101DA000BE01CD01000C08956095709580959095C9
:101DB00030954095509521953F4F4F4F5F4F6F4F56
:101DC0007F4F8F4F9F4F0895002E083090F0982F2F
:101DD000872F762F652F542F432F322F222708501D
:101DE000F4CF220F331F441F551F661F771F881F14
:101DF000991F0A95B2F7002D089597FD1094002EB3
:101E0000083098F00850232F342F452F562F672F76
:101E1000782F892F912DF4CF1594979587957795E5
:101E2000679557954795379527950A95AAF71124F1
:101E3000002D08952A0D3B1D4C1D5D1D6E1D7F1D3F
:101E4000801F911F08952A193B094C095D096E09ED
:101E50007F09800B910B08950024A7FD00942A1799
:101E60003005400550056005700580059005089512
:101E7000EE0FFF1F0590F491E02D0994A29FB00191
:101E8000B39FC001A39F700D811D1124911DB29FAE
:0E1E9000700D811D1124911D0895F894FFCF4F
:101E9E000504060708090A000405060703020100E7
:101EAE00010203000000000001010101000000001A
:101EBE001020408008040201020408010000000006
:101ECE004F01B100DE009B010F01ED0001011A026E
:101EDE0069021B01AF010D0A0046726F6D2072651B
:101EEE006769737465723A09006E616E00696E6699
:101EFE00006F7666002E0053544152540043414CFD
:101F0E004942524154494F4E3A0054656D706572C4
:101F1E0061747572653A0900745F6669653A090005
:101F2E0050726573737572653A0900486967687413
:101F3E003A0900436869702049443A09000952651C
:071F4E0073756C743A090081
:00000001FF
